:020000040800F2
:100000000050002015380008A1150008A3150008AD
:10001000A5150008A7150008A91500080000000094
:10002000000000000000000000000000AB15000808
:10003000AD15000800000000AF150008B11500085C
:100040005D3800085D3800085D3800085D3800083C
:100050005D3800085D3800085D380008B9150008F3
:10006000C31500085D3800085D3800085D380008D9
:100070005D3800085D3800085D3800085D3800080C
:100080005D3800085D3800085D3800085D380008FC
:100090005D3800085D3800085D3800085D380008EC
:1000A0005D380008CD1500085D3800085D3800088F
:1000B000DD150008ED1500085D3800085D38000802
:1000C0005D3800085D3800085D3800085D380008BC
:1000D0005D3800085D380008FD1500080D160008A1
:1000E0005D3800085D3800085D3800080000000039
:1000F0000000000000000000000000000000000000
:0C01000000000000000000005FF808F1A3
:1001100010B5054C237833B9044B13B10448AFF341
:1001200000800123237010BDE001002000000000CA
:10013000AC82000808B5034B1BB103490348AFF379
:10014000008008BD00000000E4010020AC8200082F
:10015000034613F8012B002AFBD1181A0138704707
:1001600081F0004102E000BF83F0004330B54FEA68
:1001700041044FEA430594EA050F08BF90EA020FD5
:100180001FBF54EA000C55EA020C7FEA645C7FEA68
:10019000655C00F0E2804FEA5454D4EB5555B8BF8B
:1001A0006D420CDD2C4480EA020281EA030382EAFC
:1001B000000083EA010180EA020281EA0303362D8E
:1001C00088BF30BD11F0004F4FEA01314FF4801C61
:1001D0004CEA113102D0404261EB410113F0004F73
:1001E0004FEA03334CEA133302D0524263EB43032A
:1001F00094EA050F00F0A780A4F10104D5F1200EC8
:100200000DDB02FA0EFC22FA05F2801841F1000122
:1002100003FA0EF2801843FA05F359410EE0A5F1F6
:1002200020050EF1200E012A03FA0EFC28BF4CF027
:10023000020C43FA05F3C01851EBE37101F00045DD
:1002400007D54FF0000EDCF1000C7EEB00006EEBEA
:100250000101B1F5801F1BD3B1F5001F0CD3490874
:100260005FEA30004FEA3C0C04F101044FEA4452CB
:1002700012F5800F80F09A80BCF1004F08BF5FEA52
:10028000500C50F1000041EB045141EA050130BD32
:100290005FEA4C0C404141EB0101013C28BFB1F544
:1002A000801FE9D291F0000F04BF01460020B1FA8F
:1002B00081F308BF2033A3F10B03B3F120020CDA62
:1002C0000C3208DD02F1140CC2F10C0201FA0CF040
:1002D00021FA02F10CE002F11402D8BFC2F1200CA5
:1002E00001FA02F120FA0CFCDCBF41EA0C0190405B
:1002F000E41AA2BF01EB0451294330BD6FEA0404A4
:100300001F3C1CDA0C340EDC04F11404C4F120028E
:1003100020FA04F001FA02F340EA030021FA04F3A0
:1003200045EA030130BDC4F10C04C4F1200220FAF7
:1003300002F001FA04F340EA0300294630BD21FA35
:1003400004F0294630BD94F0000F83F4801306BFFB
:1003500081F480110134013D4EE77FEA645C18BFEF
:100360007FEA655C29D094EA050F08BF90EA020F86
:1003700005D054EA000C04BF1946104630BD91EA7E
:10038000030F1EBF0021002030BD5FEA545C05D181
:100390004000494128BF41F0004130BD14F58004C0
:1003A0003CBF01F5801130BD01F0004545F0FE4134
:1003B00041F470014FF0000030BD7FEA645C1ABF69
:1003C000194610467FEA655C1CBF0B46024650EAA0
:1003D000013406BF52EA033591EA030F41F40021CC
:1003E00030BD00BF90F0000F04BF0021704730B552
:1003F0004FF4806404F132044FF000054FF0000127
:1004000050E700BF90F0000F04BF0021704730B5E7
:100410004FF4806404F1320410F0004548BF4042BC
:100420004FF000013EE700BF42004FEAE2014FEA11
:1004300031014FEA02701FBF12F07F4393F07F4FEC
:1004400081F06051704732F07F4208BF704793F0EF
:100450007F4F04BF41F40021704730B54FF4607402
:1004600001F0004521F000411CE700BF50EA010205
:1004700008BF704730B54FF000050AE050EA0102AE
:1004800008BF704730B511F0004502D5404261EB1E
:1004900041014FF4806404F132045FEA915C3FF45F
:1004A000D8AE4FF003025FEADC0C18BF03325FEAFC
:1004B000DC0C18BF033202EBDC02C2F1200300FAAD
:1004C00003FC20FA02F001FA03FE40EA0E0021FAD2
:1004D00002F11444BDE600BF70B54FF0FF0C4CF4C0
:1004E000E06C1CEA11541DBF1CEA135594EA0C0F72
:1004F00095EA0C0F00F0DEF82C4481EA030621EAAD
:100500004C5123EA4C5350EA013518BF52EA0335E7
:1005100041F4801143F4801338D0A0FB02CE4FF099
:100520000005E1FB02E506F00042E0FB03E54FF0C9
:100530000006E1FB03569CF0000F18BF4EF0010EC1
:10054000A4F1FF04B6F5007F64F5407404D25FEABD
:100550004E0E6D4146EB060642EAC62141EA555170
:100560004FEAC52040EA5E504FEACE2EB4F1FD0CB2
:1005700088BFBCF5E06F1ED8BEF1004F08BF5FEA30
:10058000500E50F1000041EB045170BD06F00046E2
:1005900046EA010140EA020081EA0301B4EB5C048F
:1005A000C2BFD4EB0C0541EA045170BD41F4801187
:1005B0004FF0000E013C00F3AB8014F1360FDEBFAC
:1005C000002001F0004170BDC4F10004203C35DA88
:1005D0000C341BDC04F11404C4F1200500FA05F30B
:1005E00020FA04F001FA05F240EA020001F00042AC
:1005F00021F0004110EBD37021FA04F642EB060122
:100600005EEA430E08BF20EAD37070BDC4F10C044B
:10061000C4F1200500FA04F320FA05F001FA04F20F
:1006200040EA020001F0004110EBD37041F10001FB
:100630005EEA430E08BF20EAD37070BDC4F1200506
:1006400000FA05F24EEA020E20FA04F301FA05F26E
:1006500043EA020321FA04F001F0004121FA04F216
:1006600020EA020000EBD3705EEA430E08BF20EAE6
:10067000D37070BD94F0000F0FD101F00046400020
:1006800041EB010111F4801F08BF013CF7D041EAA2
:10069000060195F0000F18BF704703F000465200A6
:1006A00043EB030313F4801F08BF013DF7D043EA77
:1006B0000603704794EA0C0F0CEA135518BF95EA2D
:1006C0000C0F0CD050EA410618BF52EA4306D1D1B4
:1006D00081EA030101F000414FF0000070BD50EAD3
:1006E000410606BF1046194652EA430619D094EA5D
:1006F0000C0F02D150EA013613D195EA0C0F05D147
:1007000052EA03361CBF104619460AD181EA03019A
:1007100001F0004141F0FE4141F470014FF0000052
:1007200070BD41F0FE4141F4780170BD70B54FF0ED
:10073000FF0C4CF4E06C1CEA11541DBF1CEA13556D
:1007400094EA0C0F95EA0C0F00F0A7F8A4EB05044F
:1007500081EA030E52EA03354FEA013100F0888046
:100760004FEA03334FF0805545EA131343EA12630F
:100770004FEA022245EA111545EA10654FEA0026C4
:100780000EF000419D4208BF964244F1FD0404F57D
:10079000407402D25B084FEA3202B61A65EB0305D9
:1007A0005B084FEA32024FF480104FF4002CB6EB96
:1007B000020E75EB030E22BFB61A754640EA0C0016
:1007C0005B084FEA3202B6EB020E75EB030E22BF56
:1007D000B61A754640EA5C005B084FEA3202B6EB97
:1007E000020E75EB030E22BFB61A754640EA9C0056
:1007F0005B084FEA3202B6EB020E75EB030E22BF26
:10080000B61A754640EADC0055EA060E18D04FEAE3
:10081000051545EA16754FEA06164FEAC30343EA83
:1008200052734FEAC2025FEA1C1CC0D111F4801F50
:100830000BD141EA00014FF000004FF0004CB6E749
:1008400011F4801F04BF01430020B4F1FD0C88BFE8
:10085000BCF5E06F3FF6AFAEB5EB030C04BFB6EBF3
:10086000020C5FEA500C50F1000041EB045170BDE6
:100870000EF0004E4EEA113114EB5C04C2BFD4EB13
:100880000C0541EA045170BD41F480114FF0000E97
:10089000013C90E645EA060E8DE60CEA135594EA13
:1008A0000C0F08BF95EA0C0F3FF43BAF94EA0C0F16
:1008B0000AD150EA01347FF434AF95EA0C0F7FF48B
:1008C00025AF104619462CE795EA0C0F06D152EADF
:1008D00003353FF4FDAE1046194622E750EA4106C3
:1008E00018BF52EA43067FF4C5AE50EA41047FF4D4
:1008F0000DAF52EA43057FF4EBAE12E74FF0FF3C39
:1009000006E000BF4FF0010C02E000BF4FF0010C09
:100910004DF804CD4FEA410C7FEA6C5C4FEA430C82
:1009200018BF7FEA6C5C1BD001B050EA410C0CBFD1
:1009300052EA430C91EA030F02BF90EA020F002033
:10094000704710F1000F91EA030F58BF994208BF9A
:1009500090422CBFD8176FEAE37040F00100704757
:100960004FEA410C7FEA6C5C02D150EA013C07D1AE
:100970004FEA430C7FEA6C5CD6D152EA033CD3D0F9
:100980005DF8040B704700BF8446104662468C46F3
:100990001946634600E000BF01B5FFF7B7FF002826
:1009A00048BF10F1000F01BD4DF808EDFFF7F4FF4F
:1009B0000CBF012000205DF808FB00BF4DF808EDDA
:1009C000FFF7EAFF34BF012000205DF808FB00BFFD
:1009D0004DF808EDFFF7E0FF94BF012000205DF81F
:1009E00008FB00BF4DF808EDFFF7CEFF94BF0120D4
:1009F00000205DF808FB00BF4DF808EDFFF7C4FFCD
:100A000034BF012000205DF808FB00BF4FEA410C15
:100A10007FEA6C5C02D150EA013C0AD14FEA430CF8
:100A20007FEA6C5C02D152EA033C02D14FF0000035
:100A300070474FF0010070474FEA410212F5001273
:100A400015D211D56FF47873B3EB625212D94FEA15
:100A5000C12343F0004343EA505311F0004F23FAFF
:100A600002F018BF404270474FF00000704750EA54
:100A7000013005D111F0004008BF6FF00040704711
:100A80004FF00000704700BF4A0011D212F500126B
:100A900011D20DD56FF47873B3EB62520ED44FEAD6
:100AA000C12343F0004343EA505323FA02F0704756
:100AB0004FF00000704750EA013002D14FF0FF3094
:100AC00070474FF0000070474FEA4102B2F1E04337
:100AD00024BFB3F5001CDCF1FE5C0DD901F0004C25
:100AE0004FEAC0024CEA5070B2F1004F40EB830075
:100AF00008BF20F00100704711F0804F21D113F1A1
:100B00003872BCBF01F00040704741F480114FEAD9
:100B10005252C2F11802C2F1200C10FA0CF320FA62
:100B200002F018BF40F001004FEAC1234FEAD3237F
:100B300003FA0CFC40EA0C0023FA02F34FEA4303E9
:100B4000CCE77FEA625307D150EA01331EBF4FF072
:100B5000FE4040F44000704701F0004040F0FE408D
:100B600040F40000704700BF80F0004002E000BF8A
:100B700081F0004142001FBF5FEA410392EA030F88
:100B80007FEA226C7FEA236C6AD04FEA1262D2EBD2
:100B90001363C1BFD218414048404140B8BF5B42D7
:100BA000192B88BF704710F0004F40F4000020F070
:100BB0007F4018BF404211F0004F41F4000121F086
:100BC0007F4118BF494292EA030F3FD0A2F10102D0
:100BD00041FA03FC10EB0C00C3F1200301FA03F10E
:100BE00000F0004302D5494260EB4000B0F5000F31
:100BF00013D3B0F1807F06D340084FEA310102F1F0
:100C00000102FE2A51D2B1F1004F40EBC25008BFA1
:100C100020F0010040EA03007047490040EB00006B
:100C2000013A28BFB0F5000FEDD2B0FA80FCACF16C
:100C3000080CB2EB0C0200FA0CF0AABF00EBC25099
:100C400052421843BCBFD0401843704792F0000F87
:100C500081F4000106BF80F400000132013BB5E7DA
:100C60004FEA41037FEA226C18BF7FEA236C21D050
:100C700092EA030F04D092F0000F08BF08467047B5
:100C800090EA010F1CBF0020704712F07F4F04D183
:100C9000400028BF40F00040704712F100723CBF96
:100CA00000F50000704700F0004343F0FE4040F4C0
:100CB000000070477FEA226216BF08467FEA23637E
:100CC0000146420206BF5FEA412390EA010F40F469
:100CD000800070474FF0000304E000BF10F00043B5
:100CE00048BF40425FEA000C08BF704743F096439C
:100CF00001464FF000001CE050EA010208BF7047B7
:100D00004FF000030AE000BF50EA010208BF70473D
:100D100011F0004302D5404261EB41015FEA010C52
:100D200002BF84460146002043F0B64308BFA3F14A
:100D30008053A3F50003BCFA8CF2083AA3EBC2532C
:100D400010DB01FA02FC634400FA02FCC2F120024B
:100D5000BCF1004F20FA02F243EB020008BF20F082
:100D60000100704702F1200201FA02FCC2F12002E8
:100D700050EA4C0021FA02F243EB020008BF20EADD
:100D8000DC7070474FEA4002B2F1FE4F0FD34FF0D4
:100D90009E03B3EB12620DD94FEA002343F00043E8
:100DA00010F0004F23FA02F018BF404270474FF096
:100DB0000000704712F1610F01D1420205D110F01D
:100DC000004008BF6FF0004070474FF000007047D0
:100DD00038B505460C460022002328462146FFF779
:100DE000EDFD28B928462146BDE8384000F00AB894
:100DF000284604F1004100F005F8404261EB410152
:100E000038BD00BFD0B500220B4B06460F46FFF79A
:100E100063FBFFF739FE0446FFF7E4FA0022074BB5
:100E2000FFF75AFB02460B4630463946FFF79CF95E
:100E3000FFF72AFE2146D0BD0000F03D0000F04142
:100E400010B50446084B1A68084B1A60084B9842C4
:100E500003D0084B9C4203D010BD00F0A1F9F8E785
:100E600000F08AFAF8E700BF080200200C02002018
:100E7000B8050020FC05002010B50446134B1A6885
:100E8000134B1A60134B984203D0134B9C4203D070
:100E900010BD00F0B9F9F8E7104C012210212046EE
:100EA00001F028FB01222021204601F023FB012232
:100EB0004021204601F01EFB01228021204601F046
:100EC00019FB054801F09EFCE2E700BF0802002084
:100ED0000C020020E40400209C040020000C0140CF
:100EE00072B6FEE700B595B0282200210DEB020096
:100EF00002F0EAFC002305930693079308930993F5
:100F0000019302930393049301220A924FF48033D6
:100F10000B930E920222119212934FF4E01313934B
:100F20000AA800F02DFEC8B90F23059302210691EF
:100F3000002307934FF480620892099305A801F0FB
:100F40005FF868B9022301934FF40043039301A8AB
:100F500001F032F930B915B05DF804FBFFF7C0FFBE
:100F6000FFF7BEFFFFF7BCFF38B504464B4B1A68CE
:100F70004B4B1A604B4B1B7843B9042C0DD0022C01
:100F800000F08380484801F009FC38BDFFF7AAFF54
:100F900000F0D9FD01F0CCFBEFE7444800F060FB26
:100FA00080B2434B188040F63E4398422BD8404BCA
:100FB0001B88A3F60D339BB2B3F5997F39D33C4B15
:100FC0001B88A3F6DB139BB2B3F5997F47D3384B4D
:100FD0001A8840F6DA139A42D1D8364D01221021F0
:100FE000284601F087FA01222021284601F082FAE2
:100FF00001224021284601F07DFA00228021284666
:1010000001F078FABBE72B4D00221021284601F0B1
:1010100071FA00222021284601F06CFA00224021BA
:10102000284601F067FA00228021284601F062FA82
:10103000BDE7204D01221021284601F05BFA002275
:101040002021284601F056FA00224021284601F0CE
:1010500051FA00228021284601F04CFAAFE7154DE5
:1010600001221021284601F045FA012220212846BC
:1010700001F040FA00224021284601F03BFA00220C
:101080008021284601F036FAA1E701220A4B1A70A6
:101090004FF40041074801F02DFA73E708020020E1
:1010A0000C020020100200209C0400206C04002090
:1010B000FC010020000C01400402002070B500F08B
:1010C00003FDFFF70FFF02F0D7F802F053F902F02B
:1010D000C1FA02F0D9FA02F0A3FA02F0E1F902F043
:1010E000A5F902F015FA244800F0A4FB00F00AFD6F
:1010F00000F0C4F8642000F00BFD00F0A5F94FF4F7
:101100007A7000F005FD00F07FF902461B4B186075
:101110001B4E1C4D3146284600F0A2F91A4C3346AE
:101120002A461A49204602F0D7FBC82364222146EA
:10113000174801F052FEC8220021204602F0C4FBED
:101140000EE00124134B1C7000F0F6FC01F0E8FAED
:101150002146204601F0C0FA4FF47A7000F0D8FC26
:1011600000F0D0FC0C4B18600C4B1B68C01A42F20C
:1011700010739842E5D8EFE76C04002000020020CD
:10118000240200201402002034020020D48200082F
:101190007405002010020020080200200C0200202C
:1011A00010B5134B1B6800225A62124A1368591C6F
:1011B0001160114C11490A78E2540122104802F0E2
:1011C0003EF81049204602F023FC18B1094B1B6879
:1011D000022B00D010BD2046FEF7BAFF02460021C8
:1011E000204602F071FB034B00221A60F2E700BFB9
:1011F000E404002064030020FC02002061030020BE
:10120000B80500200C83000838B5164C204601F0C4
:10121000F9FA236800225A62134D1449284602F055
:10122000F7FB04463E21284602F0E5FB002808BFF4
:10123000002C03D10E4B01221A7038BD2846FEF750
:1012400087FF024629460B4802F030FB2846FEF78E
:101250007FFF02460021284602F036FB064B0022A3
:101260001A60E7E7E4040020FC0200200C83000879
:1012700060030020680300206403002008B5642395
:101280000C220249024801F0A8FD08BD10830008A5
:10129000B80500200139002307E0C25C10F801C046
:1012A00000F803C04254013301398B42F5DB70472B
:1012B00070B50E4618B930230B70012415E00546B1
:1012C000002495B10E4981FB0531EB17C3EBA10357
:1012D000194603EB8303A5EB4303303333550D4627
:1012E0000134EEE73023335501349442FADB2146D2
:1012F0003046FFF7CFFF00233355204670BD00BFB7
:10130000676666662DE9F84306460C461746FFF702
:1013100039FD0546FFF7E2FC01463046FFF728FCA1
:101320000646002221462846FFF7C2FF0FB9BDE856
:10133000F88305462E2323543846FFF763F8024608
:101340000B4600200B4905F0EFFF804689463046EA
:10135000FFF76AF842464B46FFF7BEF8FFF7B4FBCB
:10136000691C0C44FFF70EFD3A462146FFF7A0FF2B
:10137000DDE700BF0000244008B51E4B1B78242B7E
:101380000BD00A2B1BD01C4A1278012A25D001222F
:1013900018491A4801F053FF08BD174A1278002A6D
:1013A000EFD117490A68501C086016498B54012276
:1013B000114B1A700F49114801F041FFECE70E4A3A
:1013C0001278012ADFD10E490A68501C08600D49C5
:1013D0008B54094B02221A70DEE709490A68501C37
:1013E000086008498B5401220249044801F027FF94
:1013F000D2E700BFD003002064040020FC050020D9
:10140000CC0300200004002010B50024094B1C6010
:1014100064222146084802F057FA084B1C7001224A
:101420000749084801F00BFF044B1B78022BFBD146
:10143000014810BDCC0300200004002064040020FB
:10144000D0030020FC05002008B5332202490348E0
:1014500001F02FFD08BD00BF20830008FC0500201F
:101460002DE9F04F8BB0089009914849104602F0E1
:10147000CFFA474A02F10C0502F12703049302F167
:101480002603039302F12503029302F11904019448
:1014900002F1180300932B463E4902F03DFA28461C
:1014A00002F0DDF902460B46CDE90623FFF7C4FA48
:1014B0008346394D85FB00634FEAE078C8EB63183B
:1014C0004046FEF79FFF06460F464FF0640A0AFBB0
:1014D00018B0FEF797FFDDE90623FEF747FE8046CA
:1014E00089465846FEF78EFF02460B46404649465F
:1014F000FEF73AFE0022294BFFF718F932463B4629
:10150000FEF734FECDE90601204602F0A8F9804638
:101510008946FFF791FA044685FB0035C317C3EBF4
:1015200065152846FEF76EFF06460F460AFB154076
:10153000FEF768FF42464B46FEF718FE8046894696
:101540002046FEF75FFF02460B4640464946FEF73F
:101550000BFE0022114BFFF7E9F832463B46FEF73F
:1015600005FE04460D46DDE90601FFF7ADFA062249
:101570000899FFF7C7FE20462946FFF7A5FA06227D
:101580000999FFF7BFFE0BB0BDE8F08F5483000848
:10159000D40300205C8300081F85EB5100004E40FF
:1015A000FEE7FEE7FEE7FEE7FEE77047704770479D
:1015B00008B500F09BFA08BD08B5022000F0A0FFB6
:1015C00008BD08B5042000F09BFF08BD08B502481F
:1015D00001F035F908BD00BF9C04002008B50248A1
:1015E00001F02DF908BD00BFE404002008B5024851
:1015F00001F025F908BD00BF2C05002008B5024800
:1016000001F000FD08BD00BFB805002008B5024884
:1016100001F0F8FC08BD00BFFC05002082B00E4BB5
:101620009A6942F001029A619A6902F001020092FD
:10163000009ADA6942F08052DA61DB6903F0805384
:101640000193019B054A536823F0E06343F0007364
:10165000536002B0704700BF00100240000001401C
:101660000368D86C7047000030B482B00022019249
:1016700090F82420012A00F091800346012280F88E
:1016800024204A68062A2DD80468606B02EB820287
:10169000053A4FF01F0C0CFA02FC20EA0C000D6812
:1016A00005FA02F2024362630A68092A3AD91C6801
:1016B000E06802EB42021E3A4FF0070C0CFA02FC03
:1016C00020EA0C008D6805FA02F20243E2600A6823
:1016D000103A012A36D90020002283F8242002B0D3
:1016E00030BC70470C2A0ED80568286B02EB8202CA
:1016F000233A1F24944020EA04000C6804FA02F202
:1017000002432A63D0E70568E86A02EB8202413AA5
:101710001F24944020EA04000C6804FA02F20243F9
:10172000EA62C1E71C68206902EB42024FF0070C35
:101730000CFA02FC20EA0C008D6805FA02F2024362
:101740002261C4E71A681648824205D09A6A42F0BC
:1017500020029A620120BFE7906810F4000F1BD1AD
:10176000906840F4000090600A68102A01D00020C0
:10177000B2E70C4A12680C49A1FB0212920C02EB70
:1017800082025200019202E0019A013A0192019A0A
:10179000002AF9D100209FE700209DE702209EE764
:1017A000002401400800002083DE1B4330B583B0D5
:1017B0000023019303689A6812F0010F33D10446A5
:1017C0009A6842F001029A60184B1B68184AA2FB03
:1017D00003239B0C019302E0019B013B0193019BBE
:1017E000002BF9D100F08EF9054623689B6813F0B1
:1017F000010F16D100F086F9431B022BF5D923689F
:101800009B6813F0010FF0D1A36A43F01003A362A9
:10181000E36A43F00103E362002384F824300120EB
:1018200002E0002000E0002003B030BD08000020EE
:1018300083DE1B4390F82430012B68D010B504469A
:10184000012380F82430FFF7B1FF00285BD1A36AA1
:1018500023F4407323F0010343F48073A3622368ED
:101860002C4A934227D0A26A22F48012A2625A68BC
:1018700012F4806F05D0A26A22F4405242F48052E2
:10188000A262A26A12F4805F2BD0E26A22F0060202
:10189000E262002284F824206FF002021A602368BA
:1018A0009A6802F46022B2F5602F1DD09A6842F463
:1018B00080129A602AE0A2F58062526812F4702FBA
:1018C000D1D0A26A42F48012A262134A526812F482
:1018D000806FD6D0A26A22F4405242F48052A262B3
:1018E000CFE70022E262D4E70A4A934204D09A6822
:1018F00042F4A0029A6009E0A2F58062526812F4F4
:10190000702FD3D1F3E7002384F8243010BD0220D8
:10191000704700BF002801400024014038B503682B
:101920009A6812F0010F01D1002038BD04469A6870
:1019300022F001029A6000F0E5F8054623689B68F2
:1019400013F0010F13D000F0DDF8431B022BF5D983
:1019500023689B6813F0010FF0D0A36A43F01003D3
:10196000A362E36A43F00103E3620120DDE70020A4
:10197000DBE7000000287BD070B50446836A002BAB
:101980004DD02046FFF7CAFFA36A13F0100369D1B8
:10199000002867D1A26A22F4885222F0020242F0A3
:1019A0000202A2626268E1690A43217B42EA4102C3
:1019B000A568B5F5807F02D0012D36D01D46267D65
:1019C000012E35D02668716821F469412943716080
:1019D0002568AE68274931401143A960A168B1F577
:1019E000807F01D0012902D12369013B1B052568B5
:1019F000E96A21F470010B43EB62236899681E4B7E
:101A00000B409A4225D0A36A23F0120343F010033F
:101A1000A362E36A43F00103E362012027E0C362AB
:101A200080F8243001F0D2FCABE74FF48075C6E7B4
:101A300031B9A169013945EA413141F40065C1E795
:101A4000A16A41F02001A162E16A41F00101E16275
:101A5000B8E70023E362A36A23F0030343F0010322
:101A6000A36204E0A36A43F01003A362012070BDE7
:101A700001207047FDF7E1FFFE0E1FFF10B5044681
:101A80000E4B18784FF47A73B3FBF0F30C4A1068DE
:101A9000B0FBF3F000F008FE68B90F2C01D901206B
:101AA0000AE0002221464FF0FF3000F0B7FD054B61
:101AB0001C60002000E0012010BD00BF00000020DD
:101AC000080000200400002008B5074A136843F00E
:101AD00010031360032000F08FFD0F20FFF7CEFFEF
:101AE000FFF79CFD002008BD00200240034A11685A
:101AF000034B1B780B441360704700BF6804002041
:101B000000000020014B1868704700BF68040020E7
:101B100038B50446FFF7F6FF0546B4F1FF3F02D0A3
:101B2000044B1B781C44FFF7EDFF401BA042FAD387
:101B300038BD00BF000000204FF0E022136923F001
:101B40000203136170474FF0E022136943F0020370
:101B50001361704782B0084B1B68084AA2FB03233D
:101B60005B0A00FB03F3019300BF019B5A1E019225
:101B7000002BF9D102B0704708000020D34D62104D
:101B8000002800F0F18170B582B00446036813F0BC
:101B9000010F2CD0994B5B6803F00C03042B1DD074
:101BA000964B5B6803F00C03082B12D06368B3F507
:101BB000803F41D0002B55D103F1804303F504331E
:101BC0001A6822F480321A601A6822F480221A609D
:101BD00037E08A4B5B6813F4803FE7D0874B1B6884
:101BE00013F4003F03D06368002B00F0BF8123682B
:101BF00013F0020F75D0814B5B6813F00C0F5FD0B0
:101C00007E4B5B6803F00C03082B54D02369002B38
:101C100000F08A807A4B01221A60FFF773FF0546B5
:101C2000764B1B6813F0020F75D1FFF76BFF401B5B
:101C30000228F5D903209EE1704A136843F48033EB
:101C40001360636843B3FFF75DFF05466B4B1B688A
:101C500013F4003FCBD1FFF755FF401B6428F5D9A3
:101C6000032088E1B3F5A02F09D0644B1A6822F451
:101C700080321A601A6822F480221A60E1E703F1C8
:101C80008043A3F53C331A6842F480221A601A6834
:101C900042F480321A60D4E7FFF734FF0546574B11
:101CA0001B6813F4003FA2D0FFF72CFF401B6428F1
:101CB000F5D903205FE1514B5B6813F4803FA5D158
:101CC0004E4B1B6813F0020F03D02369012B40F029
:101CD0004F814A4A136823F0F803616943EAC1035C
:101CE0001360236813F0080F33D0A369002B5CD076
:101CF000434B0122C3F88024FFF704FF05463F4B06
:101D00005B6A13F0020F21D1FFF7FCFE401B022893
:101D1000F5D903202FE1394A136823F0F8036169EC
:101D200043EAC1031360DCE7354B00221A60FFF77A
:101D3000E9FE0546314B1B6813F0020FD1D0FFF7C7
:101D4000E1FE401B0228F5D9032014E10120FFF732
:101D500001FF236813F0040F00F09680274BDB6926
:101D600013F0805F34D1254BDA6942F08052DA619A
:101D7000DB6903F080530193019B0125214B1B6814
:101D800013F4807F26D0E368012B3DD0002B53D184
:101D900003F1804303F504331A6A22F001021A6248
:101DA0001A6A22F004021A6233E0154B0022C3F8CB
:101DB0008024FFF7A7FE0546104B5B6A13F0020F65
:101DC000C7D0FFF79FFE401B0228F5D90320D2E0C1
:101DD0000025D3E70B4A136843F480731360FFF7C1
:101DE00091FE0646074B1B6813F4807FCBD1FFF7AB
:101DF00089FE801B6428F5D90320BCE00010024056
:101E000000004242007000405F4A136A43F0010341
:101E10001362E36833B3FFF775FE06465A4B1B6A3D
:101E200013F0020F2FD1FFF76DFE801B41F28833B4
:101E30009842F3D903209EE0052B09D0524B1A6A31
:101E400022F001021A621A6A22F004021A62E0E722
:101E50004D4B1A6A42F004021A621A6A42F00102F9
:101E60001A62D6E7FFF74EFE0646474B1B6A13F091
:101E7000020F08D0FFF746FE801B41F288339842DC
:101E8000F3D9032077E0E5B9E369002B72D03E4A2D
:101E9000526802F00C02082A56D0022B17D03B4B96
:101EA00000221A66FFF72EFE0446374B1B6813F01C
:101EB000007F47D0FFF726FE001B0228F5D903203C
:101EC00059E0314AD36923F08053D361DCE72F4BCB
:101ED00000221A66FFF716FE05462B4B1B6813F00F
:101EE000007F06D0FFF70EFE401B0228F5D9032025
:101EF00041E0236AB3F5803F1AD023494B6823F4AD
:101F00007413226A606A024313434B601F4B012221
:101F10001A66FFF7F7FD04461B4B1B6813F0007FA2
:101F20000ED1FFF7EFFD001B0228F5D9032022E0B8
:101F3000154A536823F40033A1680B435360DCE770
:101F4000002018E0002016E0012B16D00E4B5B6835
:101F500003F48031226A914211D103F47013626A52
:101F600093420ED1002006E001207047012002E0DC
:101F7000012000E0002002B070BD0120FBE701203D
:101F8000F9E70120F7E700BF0010024000004242DD
:101F900086B0174B0FCB0DF1180C0CE90F0040F277
:101FA0000123ADF80430134B5B6803F00C02082AE0
:101FB00002D0114806B07047C3F3834218326A4416
:101FC00012F8100C13F4803F0DD00A4B5B68C3F37A
:101FD000404318336B4413F8143C074A02FB00F0EB
:101FE000B0FBF3F0E6E7054B03FB00F0E2E700BFD0
:101FF000908300080010024000127A0000093D00A2
:10200000002800F0A08070B50D460446524B1B68B6
:1020100003F007038B420BD24F4A136823F00703E8
:102020000B431360136803F007038B4240F08D806D
:10203000236813F0020F17D013F0040F04D0474A9F
:10204000536843F4E0635360236813F0080F04D02F
:10205000424A536843F460535360404A536823F044
:10206000F003A1680B435360236813F0010F31D0D4
:102070006368012B20D0022B25D0384A126812F059
:10208000020F64D035494A6822F0030213434B60C3
:10209000FFF738FD0646314B5B6803F00C036268BE
:1020A000B3EB820F16D0FFF72DFD801B41F2883372
:1020B0009842F0D9032045E0284A126812F4003F04
:1020C000E0D101203EE0254A126812F0007FD9D10C
:1020D000012037E0204B1B6803F00703AB420AD90D
:1020E0001D4A136823F007032B431360136803F0A2
:1020F0000703AB422DD1236813F0040F06D0174A13
:10210000536823F4E063E1680B435360236813F0E2
:10211000080F07D0114A536823F46053216943EA3A
:10212000C1035360FFF734FF0C4B5B68C3F3031329
:102130000B4AD35CD8400B4B18600B4B1868FFF769
:102140009DFC002070BD012070470120FAE70120AE
:10215000F8E70120F6E700BF00200240001002402F
:10216000A48300080800002004000020014B186828
:10217000704700BF0800002008B5FFF7F7FF044BC9
:102180005B68C3F30223034AD35CD84008BD00BF99
:1021900000100240B483000808B5FFF7E7FF044BC6
:1021A0005B68C3F3C223034AD35CD84008BD00BFB9
:1021B00000100240B483000870B582B00446036882
:1021C00013F0010F36D03F4BDB6913F0805F49D12C
:1021D0003C4BDA6942F08052DA61DB6903F08053EC
:1021E0000193019B0125384B1B6813F4807F3BD082
:1021F000344B1B6A13F4407313D0626802F44072CC
:102200009A420ED02F4A136A23F440702F490126B8
:10221000C1F840640026C1F84064106213F0010F59
:1022200036D1284A136A23F4407361680B43136262
:10223000002D3ED1236813F0020F06D0214A5368C7
:1022400023F44043A1680B435360236813F0100F3D
:1022500034D01C4A536823F48003E1680B43536075
:1022600000202CE00025BEE7174A136843F4807372
:102270001360FFF747FC0646134B1B6813F4807F7F
:10228000B6D1FFF73FFC801B6428F5D9032016E088
:10229000FFF738FC06460B4B1B6A13F0020FC0D148
:1022A000FFF730FC801B41F288339842F3D90320BA
:1022B00005E0D36923F08053D361BBE7002002B06F
:1022C00070BD00BF0010024000700040000042429C
:1022D00070B582B00024A446A6E0804DAA4210D07A
:1022E00007D97F4DAA420CD005F58035AA4208D007
:1022F00013E0A5F58015AA4203D005F57025AA4282
:1023000007D18A68002A58D0012A51D04361082495
:1023100003E0A5F58015AA42F3D0BEF1FF0F4ED819
:102320000646BEF1FF0F4CD84FEA8C0233680F25EA
:10233000954023EA050304FA02F2134333604B6825
:1023400013F0805F6ED0674B9A6942F001029A6188
:102350009B6903F001030193019B4FEA9C02951CCA
:10236000614B53F825600CF003039D000F23AB4035
:1023700026EA03065D4B984229D003F58063984214
:1023800000F08E8003F58063984200F08B8003F5A7
:102390008063984219D004231AE0CC68BDE7CC686A
:1023A0000434BAE7CC680834B7E7CC680C34B4E737
:1023B00003610824B1E70024AFE70424ADE7061D5C
:1023C000AFE7ACF108029200B0E7032300E000237E
:1023D000AB4033430232444D45F822304B6813F48E
:1023E000803F61D0424A136843EA0E0313604B6892
:1023F00013F4003F5ED03E4A536843EA0E03536035
:102400004B6813F4801F5BD0394A936843EA0E038C
:1024100093604B6813F4001F58D0354AD36843EAE1
:102420000E03D3600CF1010C0A6832FA0CF353D09E
:10243000012303FA0CF302EA030E33EA0202F1D19C
:102440004A68122A3FF649AF122A3FF666AF01A545
:1024500055F822F0032300089B230008A523000859
:10246000B72300081B2300081B2300081B230008B8
:102470001B2300081B2300081B2300081B23000844
:102480001B2300081B2300081B2300081B23000834
:102490001B2300081B2300089F230008AB23000810
:1024A000012395E7022393E7114A136823EA0E03F9
:1024B00013609CE70E4A536823EA0E0353609FE7BC
:1024C0000B4A936823EA0E039360A2E7084AD36895
:1024D00023EA0E03D360A5E702B070BD000022100E
:1024E00000003110001002400000014000080140CF
:1024F000000401400AB1016170470904016170479D
:1025000008B5054B5B69034200D108BD024B586119
:10251000FEF72AFDF9E700BF0004014090F82130E2
:10252000022B06D004238363002380F8203001208F
:1025300070470268136823F00E0313600268136883
:1025400023F001031360036CC16B012202FA03F351
:102550004B6080F82120002380F820301846704717
:1025600008B590F82130022B03D0042383630120A7
:1025700008BD0268136823F00E0313600268136835
:1025800023F0010313600368194A934214D01432F4
:1025900093421FD0143293421ED0143293421ED065
:1025A000143293421ED01432934202D04FF0807204
:1025B00003E04FF4801200E001220E4B5A60012329
:1025C00080F82130002380F82030436B6BB19847AE
:1025D0000020CDE71022F0E74FF48072EDE74FF4D2
:1025E0008052EAE74FF48032E7E70020C0E700BFFF
:1025F0000800024000000240074AD36823F4E06369
:102600001B041B0C000200F4E060034343F0BF63B3
:1026100043F40033D360704700ED00E000B5194B80
:10262000DB68C3F30223C3F1070CBCF1040F28BF1E
:102630004FF0040C03F1040EBEF1060F18D9033B52
:102640004FF0FF3E0EFA0CFC21EA0C0199400EFA05
:1026500003F322EA0303194300280BDB0901C9B283
:1026600000F1604000F5614080F800135DF804FB64
:102670000023E5E700F00F000901C9B2024B19542D
:10268000F4E700BF00ED00E014ED00E0002807DBF8
:1026900000F01F02400901239340024A42F8203013
:1026A000704700BF00E100E00138B0F1807F0BD23D
:1026B0004FF0E0235861054AF02182F823100020F2
:1026C000986107221A6170470120704700ED00E011
:1026D00020BF00BF7047000010B50F4A146824F0F7
:1026E00002041460136823F00103034313600B4AD0
:1026F000136943F004031361012906D130BF074A6F
:10270000136923F00403136110BD40BFFFF7E0FF1E
:10271000FFF7DEFFF3E700BF0070004000ED00E0D0
:10272000024A136943F002031361704700ED00E0B1
:10273000024A136923F002031361704700ED00E0C1
:1027400010B4036A046A24F001040462846924F06A
:10275000F00C4CEA021223F00A030B43826103627D
:1027600010BC704710B4046A24F010040462846939
:10277000036A24F4704C4CEA023223F0A00343EACB
:1027800001138261036210BC7047836823F07003F9
:102790000B4343F0070383607047000090F83D301F
:1027A000DBB2012B27D1022380F83D300268D368C9
:1027B00043F00103D3600368114A934210D0B3F190
:1027C000804F0DD0A2F59432934209D002F5806279
:1027D000934205D01A6842F001021A600020704747
:1027E0009A6802F00702062A07D01A6842F001022E
:1027F0001A6000207047012070470020704700BF1A
:10280000002C01400268D36823F00103D360036801
:10281000196A41F21112114208D1196A40F2444278
:10282000114203D11A6822F001021A60012380F8D4
:102830003D3000207047704770477047704710B5B3
:10284000044603681A6912F0020F11D0DA6812F018
:10285000020F0DD06FF002021A61012303770368A3
:102860009B6913F0030F70D0FFF7E6FF0023237777
:1028700023681A6912F0040F12D0DA6812F0040FFC
:102880000ED06FF004021A610223237723689B693C
:1028900013F4407F5FD02046FFF7CEFF002323775D
:1028A00023681A6912F0080F12D0DA6812F0080FC4
:1028B0000ED06FF008021A61042323772368DB69C6
:1028C00013F0030F4ED02046FFF7B6FF0023237707
:1028D00023681A6912F0100F12D0DA6812F0100F84
:1028E0000ED06FF010021A61082323772368DB698A
:1028F00013F4407F3DD02046FFF79EFF002323774F
:1029000023681A6912F0010F03D0DA6812F0010F80
:1029100036D123681A6912F0800F03D0DA6812F0FA
:10292000800F34D123681A6912F0400F03D0DA689F
:1029300012F0400F32D123681A6912F0200F03D031
:10294000DA6812F0200F30D110BDFFF774FF204677
:10295000FFF773FF8AE72046FFF76DFF2046FFF77A
:102960006CFF9BE72046FFF766FF2046FFF765FFF9
:10297000ACE72046FFF75FFF2046FFF75EFFBDE7AD
:102980006FF001021A612046FEF776FAC1E76FF098
:1029900080021A61204600F026F9C3E76FF040027A
:1029A0001A612046FFF74AFFC5E76FF020021A615F
:1029B000204600F017F9C7E703681B4A90420AD087
:1029C000B0F1804F07D0A2F59432904203D002F5C7
:1029D0008062904203D123F070034A681343124A85
:1029E00090420AD0B0F1804F07D0A2F594329042C5
:1029F00003D002F58062904203D123F44073CA6889
:102A0000134323F080034A69134303608B68C36256
:102A10000B688362044B984202D0012343617047E4
:102A20000B690363F9E700BF002C014040B310B508
:102A3000044690F83D30F3B1022384F83D3021463E
:102A400051F8040BFFF7B8FF012384F8463084F8EF
:102A50003E3084F83F3084F8403084F8413084F8C8
:102A6000423084F8433084F8443084F8453084F8A8
:102A70003D30002010BD80F83C3000F081FDDBE7E8
:102A80000120704710B4846824F47F4C42EA03228A
:102A90000A4342EA0C02826010BC704790F83C3056
:102AA000012B66D010B50446012380F83C30022388
:102AB00080F83D300268936823F47F4323F0770366
:102AC00093600B68602B40D022D8402B47D00BD9A5
:102AD000502B0ED1CA6849680068FFF731FE5021BB
:102AE0002068FFF752FE04E0202B0CD008D9302BD1
:102AF00009D0012384F83D30002084F83C0010BD4B
:102B00000BB1102BF5D119462068FFF73EFEF0E718
:102B1000702B0ED0B3F5005FEBD1CB684A688968A3
:102B20000068FFF7AFFF2268936843F48043936027
:102B3000DFE7CB684A6889680068FFF7A3FF22686F
:102B4000936843F077039360D3E7CA6849680068E5
:102B5000FFF708FE60212068FFF717FEC9E7CA6883
:102B600049680068FFF7ECFD40212068FFF70DFE83
:102B7000BFE702207047000090F83C30012B2CD0BA
:102B800010B4012380F83C30022380F83D30036804
:102B90005A689C6822F0700C0A6842EA0C025A607B
:102BA00003680F4A93420AD0B3F1804F07D0A2F5D1
:102BB0009432934203D002F58062934204D124F010
:102BC00080044A6814439C60012380F83D30002350
:102BD00080F83C30184610BC70470220704700BF98
:102BE000002C0140704770470268D36823F490734B
:102BF000D3600268536923F001035361036B012B17
:102C000005D0202380F83E3000230363704702681C
:102C1000D36823F01003D360F3E790F83D30DBB2C4
:102C2000212B01D0022070478368B3F5805F17D055
:102C3000036A5A1C02621A7803685A60C38C9BB2FA
:102C4000013B9BB2C3844BB90268D36823F0800375
:102C5000D3600268D36843F04003D360002070471C
:102C60000369002BE4D1036A1B880268C3F30803DD
:102C70005360036A02330362E0E7000010B50446C4
:102C80000268136923F44053C1680B4313618368DE
:102C90000269134342691A430168CB6823F4B053B5
:102CA00023F00C031343CB600268536923F4407391
:102CB00081690B4353610268134B9A4220D0FFF79E
:102CC0005BFA024602EB820202EB820263689B001F
:102CD000B2FBF3F20D48A0FB02314909642303FB68
:102CE00011231B013233A0FB03235B0903F0F00225
:102CF00002EB011203F00F03216813448B6010BD37
:102D0000FFF74AFA0246DDE7003801401F85EB5124
:102D10002DE9F84305460F4616469946DDF8208012
:102D20002C68246837EA04030CBF4FF0010C4FF005
:102D3000000CB4451FD1B8F1FF3FF1D0B8F1000F3E
:102D400005D0FEF7DFFEA0EB09004045E8D92A6870
:102D5000D36823F4D073D3602A68536923F0010346
:102D60005361202385F83D3085F83E30002385F8F7
:102D70003C30032000E00020BDE8F88358B310B5D4
:102D8000044690F83D300BB3242384F83D3022688C
:102D9000D36823F40053D3602046FFF76FFF226807
:102DA000136923F4904313612268536923F02A03C3
:102DB00053612268D36843F40053D3600020206439
:102DC000202384F83D3084F83E3010BD80F83C303C
:102DD00000F074FCD8E7012070472DE9F04182B083
:102DE0001E4690F83D30DBB2202B54D104460D46F0
:102DF0009046002953D0002A53D090F83C30012B44
:102E000051D0012380F83C3000230364212380F853
:102E10003D30FEF777FE0746A4F82480A4F826800C
:102E2000A368B3F5805F05D04FF00008002384F855
:102E30003C3012E0236913B14FF00008F6E7A846D2
:102E40000025F3E738F8023B2268C3F30803536018
:102E5000E28C92B2013A92B2E284E38C9BB273B1FB
:102E600000963B46002280212046FFF751FFE0B943
:102E7000002DE7D015F8012B23685A60E8E700968B
:102E80003B46002240212046FFF742FF78B920232D
:102E900084F83D3000E0022002B0BDE8F08101205E
:102EA000FAE70120F8E70220F6E70320F4E7032021
:102EB000F2E790F83D30DBB2202B19D1D1B1DAB175
:102EC00090F83C30012B19D0012380F83C3001628E
:102ED0008284C28400230364212280F83D2080F88C
:102EE0003C300168CA6842F08002CA6018467047E8
:102EF0000220704701207047012070470220704770
:102F0000704708B50168CA6822F04002CA602022F2
:102F100080F83D20FFF7F4FF002008BD704708B59A
:102F2000406A0023C385C384FFF7F8FF08BD7047DC
:102F300090F83E30DBB2222B60D18368B3F5805F1E
:102F400046D0826AB3F5805F04D0002B4DD103696F
:102F5000002B4AD103685B681370836A0133836274
:102F6000C38D9BB2013B9BB2C385002B48D100B5FA
:102F700083B00268D36823F02003D3600268D3686B
:102F800023F48073D3600268536923F00103536113
:102F9000202380F83E30036B012B2CD100230363E8
:102FA0000268D36823F01003D36003681A6812F034
:102FB000100F06D0002201921A6801925B680193FB
:102FC000019B818DFFF7B3FF002003B05DF804FB88
:102FD0000269002AB5D1826A03685B68C3F30803FB
:102FE0001380836A02338362BAE703685B6803F085
:102FF0007F031370B1E7FDF723FFE5E70220704779
:103000000020704730B583B0044602681368D0686A
:10301000516913F00F0505D113F0200F02D010F005
:10302000200F19D12DB111F0010119D110F4907FA9
:1030300016D1216B012975D013F0800F03D010F049
:10304000800F40F0D78013F0400F03D010F0400FF6
:1030500040F0D48003B030BD2046FFF769FFF9E7A8
:1030600013F0010F06D010F4807F03D0226C42F0E1
:103070000102226413F0040F04D019B1226C42F053
:103080000202226413F0020F04D019B1226C42F044
:103090000402226413F0080F07D010F0200F00D1B3
:1030A00019B1226C42F008022264226C002AD1D0AD
:1030B00013F0200F02D010F0200F21D123685B699C
:1030C00003F04003226C12F0080F00D123B3204616
:1030D000FFF78AFD23685A6912F0400F18D05A6929
:1030E00022F040025A61A36B73B1464A5A63A06B47
:1030F000FFF736FA0028ADD0A06B436B9847A9E7DD
:103100002046FFF715FFD9E72046FFF707FFA1E7A5
:103110002046FFF703FF9DE72046FFF7FFFE002351
:10312000236497E713F0100F86D010F0100F83D0B0
:10313000002301931368019353680193019B536922
:1031400013F0400F32D0A16B0B685B689BB2002B71
:1031500080D0A08D98427FF67DAFE3858B69202BD0
:1031600008D1A18DE38D9BB2C91A89B22046FFF721
:10317000DEFE6FE7D36823F48073D360226853695F
:1031800023F0010353612268536923F04003536124
:10319000202384F83E30002323632268D36823F081
:1031A0001003D360A06BFFF7B9F9DAE7A18DE38DC7
:1031B0009BB2C91A89B2E38D9BB2002B3FF44AAF90
:1031C00000293FF447AFD36823F49073D36022689B
:1031D000536923F001035361202384F83E30002318
:1031E00023632268D36823F01003D3602046FFF7DF
:1031F0009EFE2FE72046FFF710FD2BE72046FFF746
:1032000080FE27E71F2F0008034681628285C28562
:1032100000201864222283F83E2083F83C001968BD
:10322000CA6842F48072CA6019684A6942F00102B1
:103230004A611A68D36843F02003D360704708B529
:1032400090F83E30DBB2202B0DD171B17AB190F8FD
:103250003C30012B0DD0012380F83C300023036368
:10326000FFF7D2FF00E0022008BD0120FCE70120AB
:10327000FAE70220F8E770472DE9F04188B0002412
:103280000494059406940794364B9A6942F0200200
:103290009A619A6902F020020192019A9A6942F0B9
:1032A00004029A619A6902F004020292029A9A69EF
:1032B00042F008029A619B6903F008030393039BA1
:1032C000294D22464FF400412846FFF713F9274EB7
:1032D00022464FF410613046FFF70CF90122F0212D
:1032E0002846FFF707F906230493214B059301278E
:1032F000069704A92846FEF7EBFF48F2F003049373
:10330000059706944FF00308CDF81C8004A92846C1
:10331000FEF7DEFF4FF41063049305970694CDF893
:103320001C8004A93046FEF7D3FF4FF4805304936A
:103330000594069404A93046FEF7CAFF22462146AA
:103340000720FFF76BF90720FFF7A0F92246214677
:103350000820FFF763F90820FFF798F908B0BDE8E7
:10336000F08100BF00100240000C01400008014045
:103370000000211000B585B0002301930293039350
:103380001048114A026083600122027303754FF4F2
:103390006021C16143600261FEF7ECFA60B900236D
:1033A000019301220292039301A90648FEF75CF9FA
:1033B00028B905B05DF804FBFDF792FDEFE7FDF7D6
:1033C0008FFDF6E76C0400200024014000B587B0B3
:1033D000002302930393049305930268114B9A42CE
:1033E00002D007B05DF804FB03F56C439A6942F420
:1033F00000729A619A6902F400720092009A9A69C6
:1034000042F004029A619B6903F004030193019B5B
:10341000012302930323039302A90348FEF758FFF5
:10342000DFE700BF002401400008014000B587B07D
:10343000002302930393049305930093019316488A
:10344000164A02604FF4E1524260836047F2305204
:10345000C260036143618361FFF7E8FA90B94FF4FA
:103460008053029302A90C48FFF718FB68B90023A8
:103470000093019369460848FFF77EFB40B907B007
:103480005DF804FBFDF72CFDE9E7FDF729FDEEE70C
:10349000FDF726FDF3E700BF9C040020002C01404F
:1034A00000B587B000230293039304930593009320
:1034B000019316484FF0804202604FF4E15242609F
:1034C00083604FF4FA62C260036180238361FFF777
:1034D000ADFA90B94FF48053029302A90B48FFF75D
:1034E000DDFA68B900230093019369460748FFF7A6
:1034F00043FB40B907B05DF804FBFDF7F1FCE9E7D9
:10350000FDF7EEFCEEE7FDF7EBFCF3E7E40400204B
:1035100000B587B0002302930393049305930093AF
:1035200001931548154A026043F63F0242608360EA
:103530004FF6FF72C26003618361FFF777FA90B9BB
:103540004FF48053029302A90B48FFF7A7FA68B91A
:1035500000230093019369460748FFF70DFB40B92C
:1035600007B05DF804FBFDF7BBFCE9E7FDF7B8FC2D
:10357000EEE7FDF7B5FCF3E72C0500200004004062
:1035800000B585B00368234A934208D0B3F1804F59
:1035900018D0214A934229D005B05DF804FB1F4B97
:1035A0009A6942F400629A619B6903F40063019393
:1035B000019B002211461920FFF730F81920FFF770
:1035C00065F8E9E703F50433DA6942F00102DA61EC
:1035D000DB6903F001030293029B002201211C20FE
:1035E000FFF71CF81C20FFF751F8D5E70B4BDA6901
:1035F00042F00202DA61DB6903F002030393039BEA
:10360000002201211D20FFF709F81D20FFF73EF8D9
:10361000C2E700BF002C014000040040001002403F
:1036200008B50A480A4B03604FF4E13343600023B6
:103630008360C36003610C2242618361C361FFF751
:103640009DFB00B908BDFDF74BFCFBE774050020AE
:103650000038014008B50A480A4B03604FF4E133D3
:10366000436000238360C36003610C224261836175
:10367000C361FFF783FB00B908BDFDF731FCFBE731
:10368000B80500200044004008B50A480A4B036012
:103690004FF41653436000238360C36003610C2220
:1036A00042618361C361FFF769FB00B908BDFDF7A3
:1036B00017FCFBE7FC0500200048004070B58AB00D
:1036C0000023069307930893099303684B4A934298
:1036D00007D04B4A93422ED04A4A93425BD00AB05D
:1036E00070BD494B9A6942F480429A619A6902F42A
:1036F00080420092009A9A6942F004029A619B69A2
:1037000003F004030193019B4FF40073069302231B
:103710000793032309933D4C06A92046FEF7D8FDE5
:103720004FF48063069300230793089306A920466D
:10373000FEF7CEFDD3E7344BDA6942F40032DA61AA
:10374000DA6902F400320292029A9A6942F00402A3
:103750009A619B6903F004030393039B042306937C
:103760000225079503230993284E06A93046FEF744
:10377000AFFD0823069300240794089406A9304659
:10378000FEF7A6FD224629462620FEF747FF262003
:10379000FEF77CFFA3E71C4BDA6942F48022DA6172
:1037A000DA6902F480220492049A9A6942F00802CB
:1037B0009A619B6903F008030593059B4FF48063AE
:1037C00006930225079503230993114E06A9304657
:1037D000FEF77EFD4FF400630693002407940894DF
:1037E00006A93046FEF774FD224629462720FEF73B
:1037F00015FF2720FEF74AFF71E700BF00380140A0
:103800000044004000480040001002400008014011
:10381000000C01400C480D490D4A002302E0D45829
:10382000C4500433C4188C42F9D30A4A0A4C00230A
:1038300001E013600432A242FBD3FFF71CFD00F04D
:1038400011F8FDF73BFC704700000020E00100206C
:1038500058880008E001002054060020FEE70021FF
:1038600000F0F6BE70B500260C4D0D4C641BA41084
:10387000A64209D104F01AFD00260A4D0A4C641B29
:10388000A410A64205D170BD55F8043B98470136F7
:10389000EEE755F8043B98470136F2E750880008F8
:1038A0005088000850880008548800080A44914253
:1038B00000F1FF3300D1704710B511F8014B914270
:1038C00003F8014FF9D110BD03460244934200D1E1
:1038D000704703F8011BF9E70EB46FF0004100B523
:1038E0009CB01DAB029006900791049108480949CD
:1038F00053F8042B0591006802A9019302F01CF80B
:103900000022029B1A701CB05DF804EB03B07047F4
:103910000C0000200802FFFF0EB44FF4017230B516
:103920009CB01FAC54F8045BADF8142002900690D4
:10393000FCF70EFC0B4B03900B9300230F93149397
:103940004FF6FF7307900848ADF816302A46234615
:1039500002A90068019402F049F91CB0BDE83040AA
:1039600003B070478F3900080C00002010B50C46DA
:10397000B1F90E1002F09CFD0028ABBF636DA38966
:103980001B1823F48053ACBF6365A38110BD0020D6
:1039900070472DE9F0411F468B890546DB050C4633
:1039A000164605D502230022B1F90E1001F0E4F904
:1039B000A389324623F48053A38128463B46B4F9B9
:1039C0000E10BDE8F04100F04FBE10B50C46B1F945
:1039D0000E1001F0D1F9431CA38915BF606523F4D3
:1039E000805343F48053A38118BFA38110BDB1F964
:1039F0000E1000F04BBE0346C9B2184613F8012B57
:103A000012B18A42F9D17047002918BF00207047CF
:103A10000A7870B56AB970BD9A4209D10C4605465C
:103A200014F8013F002BF6D015F8016F9E42F7D035
:103A300001300378002BEFD11846ECE72DE9F04177
:103A40000F46904601F02CFD04460D46B8F1000FDC
:103A500011D0C7F30A53C3F16B03002B0BDD002415
:103A60001B0503F17F5505F5401522462B46FCF753
:103A700033FD04460D4620462946BDE8F08100008E
:103A80002DE9F04F9B4600239FB01A939E4B824630
:103A90001F680E4638461592FCF75AFB4FF0000897
:103AA00004464FF000091996199B1A782B2A4CD01E
:103AB0003AD80D2A33D8082A33D8002A3DD000231B
:103AC0000A93199D2B78302B40F0AA806B7803F075
:103AD000DF03582B66D10A9B504601931AAB009323
:103AE0008A4ACDF808B01BAB19A900F047FE10F0C8
:103AF0000706044605D0062E29D100230135199565
:103B00000A93159B002B40F08A850A9BD3B142464D
:103B100009F10043104619461FB0BDE8F08F202A76
:103B2000CDD101331993BFE72D2AC8D101220A92C2
:103B30005A1C19925B78002BC3D1159B1996002B48
:103B400040F06B8542464B46E4E70022EFE71A9AC5
:103B50003AB135211CA801F0A7FD50461A9901F091
:103B60006FF9013E042E06D8DFE806F00A031417A9
:103B70000A00DDE91C892107C3D549F00049C0E7E7
:103B80001B9ADDE91C8302F2334223F4801343EADB
:103B90000259F0E7DFF87891EDE76FF000494FF058
:103BA000FF38E8E7199B5A1C19925B78302BF9D043
:103BB000002BA6D001230793199B0A220893002308
:103BC0009B46CDE9053319980578A5F13003D9B2A4
:103BD000092927D92246394602F0CAFC002833D0E9
:103BE00000202A465C4603460490652A01D0452AF7
:103BF00014D11CB9079A02439FD00024199E721C4D
:103C0000199272782B2A79D02D2A00F08380002710
:103C1000A2F13001092940F28380199600259FE026
:103C20000023C8E7BBF1080FD5BF0699059902FB31
:103C3000013302FB013300F10100D4BF0693059369
:103C40000BF1010B1990BEE7199B1A1919921A5D15
:103C5000BBF1000F36D05C460490A2F13003092B73
:103C600012D90123C1E7199B01305A1C19925A78C5
:103C7000302AF8D0A2F13103082B00F2D584049049
:103C800000200446199B0893303A00F1010313D039
:103C9000049905191944049123460A21AB4213D112
:103CA0002318082B04F1010404441BDC0A230699A1
:103CB00003FB012306930023199A1846511C1991FE
:103CC0005278CAE75846D3E7082B04DC069F4F43D7
:103CD00006970133E2E75F1C102FDEBF059F4F43BD
:103CE0000597F6E7102CDFBF0A23059903FB012394
:103CF0000593E0E70023049301237BE70027B21C30
:103D00001992B27884E700BFBC840008CC83000815
:103D10000000F07F0127F2E7199A511C199152789F
:103D2000302AF9D0A2F1310108293FF677AF4FF0E0
:103D30000A0EA2F1300C199A0992199A511C199184
:103D40005278A2F13005092D35D9099D491B082962
:103D500044F61F6502DC6545A8BF654607B16D42A4
:103D6000002C4CD1079901437FF4CBAE002B7FF49C
:103D7000E4AE692A26D023DC492A23D04E2A7FF4D8
:103D8000DCAE9D4919A800F047FF00283FF4D5AEEE
:103D9000199B1B78282B2CD198491CAA19A800F034
:103DA0004FFF052825D11D9BDDF8708043F0FF49AA
:103DB00049F4E009A5E60EFB0C2CACF1300CBCE795
:103DC0006E2ADCE78E4919A800F026FF00283FF490
:103DD000B4AE199B8B49013B19A8199300F01CFF45
:103DE00010B9199B013319934FF00008DFF81892AE
:103DF00087E6864802F06EFB8046894681E6049B92
:103E0000BBF1000F08BFA346EB1A102C06982646FC
:103E10000793A8BF1026FCF7E5FA092C80468946CF
:103E200013DD7B4B03EBC60353E91223FCF754FB72
:103E3000804605988946FCF7D5FA02460B4640466F
:103E40004946FCF793F9804689460F2C36DC079BE0
:103E5000002B3FF456AE22DD162B09DC6C4942469E
:103E600001EBC3014B46D1E90001FCF735FBC3E789
:103E7000079AC4F12503934220DB654DC4F10F047A
:103E800005EBC4014246D1E900014B46FCF724FB97
:103E9000079B1C1B05EBC405D5E90023E5E7079B41
:103EA00016330BDB049B40465D1B594B494603EB25
:103EB000C505D5E90023FCF739FC9DE7079BA61B48
:103EC0001E44002E74DD16F00F030AD050494246FE
:103ED00001EBC301D1E900014B46FCF7FDFA804636
:103EE000894636F00F0652D0B6F59A7F27DD4FF09F
:103EF000000BCDF810B0CDF820B0CDF818B02223CB
:103F00004FF00008DFF80091CAF80030089B002B42
:103F10003FF4F7AD50461A9900F092FF50460699CB
:103F200000F08EFF5046049900F08AFF5046089931
:103F300000F086FF5946504600F082FFE1E5354B20
:103F400040460593002349461F463611012E21DCC9
:103F50000BB1804689462F4BA9F1547903EBC70773
:103F60004246D7E900014B46FCF7B6FA264B0A4613
:103F70000B40294980468B42B9D8A1F580118B426C
:103F800086BF4FF0FF38DFF8949002F15479002398
:103F900005937FE0F20705D5059BD3E90023FCF7E5
:103FA0009BFA0123059A0137083276100592CDE776
:103FB000EDD0764216F00F020AD0154B404603EBC7
:103FC000C2034946D3E90023FCF7B0FB804689468B
:103FD0003611DCD01F2E23DD4FF0000BCDF810B0D2
:103FE000CDF820B0CDF818B022234FF000084FF0E4
:103FF0000009CAF8003089E7C9830008E083000897
:10400000C0830008C38300080000F07FED8600082D
:1040100090850008688500080000A07CFFFFEF7F06
:1040200016F0100318BF6A23404605934946002343
:10403000B04FF20704D5D7E90023FCF74DFA01236E
:10404000761007F10807F4D10BB180468946059B2D
:10405000C3B1C9F30A52C2F16B03002B494611DD0B
:104060001F2B40F32781342BD8BF4FF0FF334FF085
:104070000008CFBF4FF05C79C2F14B0203FA02F2A5
:1040800002EA01090022002340464946FCF78CFC65
:104090000028A1D1069B5A46009350462346089912
:1040A00000F036FF089000283FF421AF049B4FF04A
:1040B000000B5D1B079BCDF810B0002BB4BF2B4647
:1040C00000230E93079B23EAE3731493089B504647
:1040D000596800F075FE069000283FF410AF089B69
:1040E0000C301A6903F10C0102329200FFF7DEFB7B
:1040F0001CAB01931BAB009342464B465046CDE9A7
:104100000C8901F047FA1A9000283FF4F8AE01211B
:10411000504600F095FF0346049000283FF4EFAEB0
:104120001B9D1C9A002DABBF0E9B149BEE185C1BB5
:10413000059BA8BF149CA5EB030515446E4B05F128
:10414000FF35B8BF0E9E9D42C2F1360280F2C48098
:104150005B1B1F2B4FF00107A2EB030200F3B180A2
:10416000002507FA03F30F93B718059BBE421444CA
:104170001C443346A8BF3B46A342A8BF2346002B9E
:10418000C2BFFF1AE41AF61A0E9B002B17DD1A465F
:104190005046049901F012F8049000283FF4AFAEA5
:1041A00001461A9A504600F061FF099000283FF43A
:1041B000A6AE50461A9900F043FE099B1A93002FB1
:1041C00000F38E80079B002B08DD5046149A069959
:1041D00000F0F4FF069000283FF491AE002C08DDBB
:1041E00022465046069901F043F8069000283FF415
:1041F00086AE002E08DD32465046049901F038F8AC
:10420000049000283FF47BAE5046069A1A9901F0BC
:10421000BBF8834600283FF472AE0024C3680499BB
:10422000C4600B9301F094F8A0426BDA0B9B53EA45
:10423000080340F09180C9F31303002B40F08C80F9
:1042400029F000431B0D1B05B3F1D66F40F28480AB
:10425000DBF814301BB9DBF81030012B7CDD59463C
:104260000122504601F004F80499834601F070F8E9
:10427000002871DD05994B46204A002900F08C800A
:1042800002EA0901B1F1D66F00F38680B1F15C7FDB
:104290007FF7AAAE40464946194B0022FCF71CF9AD
:1042A0000B46034308BF22238046894608BFCAF84D
:1042B00000302FE64FF0FF3202FA03F303EA08085A
:1042C000E0E6C5F17F4505F57F0505F57B45E2355F
:1042D00007FA05F50F9747E7012300250F9343E7FA
:1042E0003A4650461A9900F0C3FF1A9000287FF40E
:1042F00069AF04E6F883000802FCFFFF0000F07FCE
:1043000000005039CDF8249065D10B9AC9F31303FE
:104310005AB3994A93422BD1059B414603B34A466F
:10432000964B1340B3F1D46F4FF0FF321BD81B0DE7
:10433000C3F16B0302FA03F3994219D1904B099A26
:104340009A4202D101313FF4DAAD4FF000088B4BB5
:10435000099A1A4002F58019059B002B9AD1D9E5DC
:104360004FF0FF33E8E71346E6E753EA080381D04E
:10437000E5B1099B1D42EFD00B9B40464946059A8B
:10438000C3B1FFF75BFB02460B46DDE90C01FBF70F
:10439000EDFE80468946DFE71340A3F580136FEA00
:1043A00013594FF0FF386FEA0959D5E70F9B13EA0D
:1043B000080FE0E7FFF742FB02460B46DDE90C0180
:1043C000FBF7D2FE0022002380468946FCF7ECFA78
:1043D0000028C1D008E65846049901F037F90022B8
:1043E0004FF0804306460F46FCF7F2FA002870D0E3
:1043F0000B9B002B42D00026624F624D099B23F09D
:1044000000431B0D1B050F930F9A5F4B9A4240F020
:10441000C380099B4046A3F15479494601F040F816
:1044200002460B4630463946FCF756F842464B46A4
:10443000FBF79CFE0B465149544A19409142804675
:104440005DD90D9A4E4B9A4203D10C9B01333FF438
:1044500056AD4FF0FF38DFF8289150461A9900F01A
:10446000EFFC5046069900F0EBFC5046049900F032
:10447000E7FC5946504600F0E3FC27E6B8F1000F90
:1044800019D1099BC3F31303E3B90022304639461F
:104490003C4BFCF793FAC8B90022304639463C4BF6
:1044A000FCF71AF804460D4605F1004316941793DD
:1044B000DDE91667A2E7B8F1010F03D1099B002BD4
:1044C0003FF492AD00260024324F96E70B9C304D0E
:1044D000EAE72F4B002230463946FBF7FDFF0B9BE6
:1044E00004460D4633B901F1004310901193DDE904
:1044F000106783E702460B46CDE91023F7E703F187
:104500005479059B002BA8D129F000430F9A1B0D6D
:104510001B059A42A1D120462946FCF759FCFBF71E
:10452000ADFF02460B4620462946FBF71DFE0B9ABF
:10453000C9F3130343EA0803134304460D4666D048
:1045400009A3D3E90023FCF739FA00287FF4E2AC91
:1045500007A3D3E9002320462946FCF74DFA00289B
:104560003FF47BAFD6E400BF9535A094FFFFDF3F5B
:1045700035E5AF350000E03FFFFF0F000000F07FA2
:10458000FFFFEF7F0000F03F0000E07FFFFF9F7C18
:104590000000E03F0000F0BF059B13B30F9BB3F199
:1045A000D46F1ED826A3D3E9002320462946FCF762
:1045B0000FFA90B129462046FCF766FA012838BF69
:1045C0000120FBF70FFF0B9B04460D46D3B901F109
:1045D000004312901393DDE912670F9A07F1D66337
:1045E0009F1ADDE90C0100F05BFF02460B463046E6
:1045F0003946FBF771FFDDE90C23FBF7B7FD804679
:1046000089467EE702460B46CDE91223E3E70EA377
:10461000D3E90023FCF7D2F9A1E700230A93199B01
:10462000159A1360FFF771BA652A3FF463AB452A08
:104630003FF460AB0123FFF795BB00BFAFF30080F1
:104640000000C0FFFFFFDF419535A094FFFFCF3F83
:104650000A4601460248034B0068FFF711BA00BF43
:104660000C0000207400002038B5044608461146AE
:104670000022054D2A601A4603F00EFE431C02D1AB
:104680002B6803B1236038BD4806002038B50023ED
:10469000054D044608462B6003F0B8FD431C02D1CB
:1046A0002B6803B1236038BD4806002003692DE95B
:1046B000F043B3EB611F00F114044FEA611246DDD1
:1046C00011F01F0104EB830604EB82050CD129468F
:1046D00000F11007B14235D39B1A9B00EA1E9642A7
:1046E00038BF0023234415E0A14654F82270C1F1DD
:1046F0002008CF4005F1040E7645F44616D89A1AE4
:104700009200043A0135AE4238BF0022A318A750E8
:1047100007B10433A342A3EB040208BF00234FEA0E
:10472000A202026108BF4361BDE8F083DCF800C06B
:104730000CFA08FC4CEA070749F8047B5EF8047B96
:10474000CF40D9E751F804CB47F804CFC2E723465E
:10475000E0E7A0F13003092B02D82038C0B270473F
:10476000A0F16103052B01D84738F7E7A0F1410319
:10477000052B01D82738F1E7002070472DE9F04FCD
:104780008BB00593B24B02901B688B46184690463F
:104790000393FBF7DDFC8246039BDBF80020034418
:1047A00013F8013C0693931CC2F1FF2202F57F022D
:1047B000FE32D1181F4613F8010B01913028F8D0B2
:1047C000FFF7C7FF044600283AD1524638460399FE
:1047D00001F0CEFE0546002866D117F80A0007EB67
:1047E0000A06FFF7B6FF002860D0334618781F4648
:1047F000302803F10103F9D0FFF7ABFF0123B0FA32
:1048000080F43546640901933A4616463078013201
:10481000FFF79FFF0028F8D152463046039901F078
:10482000A7FE80B94DB906EB0A052A461646307830
:104830000132FFF78EFF0028F8D1AD1BAD0004E078
:1048400000242546E0E7002DF7D1337803F0DF039D
:10485000502B39D173782B2B2AD02D2B2CD04FF005
:104860000009711C0878FFF774FF431EDBB2182B98
:104870002AD8A0F1100211F8010FFFF76AFF431EBA
:10488000DBB2182B1BD9B9F1000F00D052421544EE
:10489000CBF80010D4B1019B002B14BF00270627D2
:1048A00038460BB0BDE8F08F3E4625460124CCE7E4
:1048B0004FF00009B11CD5E74FF00109FAE70A23D0
:1048C00003FB0202103AD6E73146E1E72146F31B2B
:1048D000013B072B0ADC029800F072FA044640B94B
:1048E0000246DE215B4B5C4801F08EFF01315B101C
:1048F000EFE74FF0000B00F11409CAF10103CDF806
:104900001090CDF804B00893B7423FD3049F019BA9
:1049100047F8043BA7EB0907BF102761184600F0D2
:1049200041FB7F01D8F800603F1AB74262DDBF1B30
:104930003946204600F0DBFE8246A8B14FF0010A5E
:104940007B1E591159F8211003F01F020AFA02F2D6
:104950000A4209D0534505DD2046B91E00F0C7FEC6
:10496000002844D14FF0020A39462046FFF79EFE48
:104970003D44D8F80830AB424ADA2146029800F0AC
:104980005FFA0023149AA327136089E7731E069A1F
:10499000079316F8013C934219D0BBF1200F07D1C1
:1049A000049B019A43F8042B049300239B46019334
:1049B00016F8010CFFF7CDFE019B00F00F0000FA86
:1049C0000BF0034301930BF1040B079B0DE0089AD6
:1049D000731E1344BB42E0D3184652460399099311
:1049E00001F0C6FD099B0028D7D11E468CE74FF089
:1049F000030AB9E709DAF71B21463A46029800F0A4
:104A000037FC0446ED1B00F114094FF0000AB0E733
:104A1000D8F80400A84272DD451BAE4235DCD8F858
:104A20000C30022B29D0032B2BD0012B1CD1AE42F2
:104A30001AD1012E12D1D8F80430059A62271360DA
:104A400001232361C9F80030149B1C6028E700BFD4
:104A5000BC84000820840008318400082046711EB0
:104A600000F045FE0028E6D12146029800F0E8F962
:104A70000023149A5027136012E7159B002BF3D1E3
:104A8000D9E7159B002BD6D1EEE76F1EBAF1000FC8
:104A900032D127B13946204600F029FE8246012155
:104AA0007B1159F8233007F01F0701FA07F71F425F
:104AB0004FF002072946204618BF4AF0020A761B2B
:104AC000FFF7F4FDD8F80450BAF1000F48D0D8F839
:104AD0000C30022B15D0032B17D0012B09D11AF063
:104AE000020F06D0D9F800004AEA000A1AF0010FB6
:104AF0000ED147F0100733E04FF0010ACFE701274E
:104B0000E2E7159BC3F101031593159B002BF0D031
:104B10004FF0000CD4F810B004F114034FEA8B0AE4
:104B200003EB8B01184653F8042BB2F1FF3F1CD066
:104B300001320260022F04F114033DD1D8F80020A5
:104B4000013AB2420AD10122711153F8213006F024
:104B50001F0602FA06F61E4218BF174647F0200746
:104B6000149B1C60059B1D609AE6994243F804CC97
:104B7000D8D8A3689B4517DB61680298013100F023
:104B80001FF9814618B902468421194BABE6226908
:104B900004F10C01023292000C30FEF787FE214630
:104BA000029800F04DF94C4623695A1C22610122FB
:104BB00004EB83035A61BDE722695A450BDD0121ED
:104BC0002046FFF773FDD8F808300135AB42FFF6F9
:104BD000D4AE0127C2E716F01F06FAD0534453F8AB
:104BE000040C00F0DFF9C6F12006B042E7DBF0E785
:104BF00020840008C2F10802920070B5C2F12006BC
:104C00004368046803FA06F52C43D340046040F877
:104C1000043F8842F4D370BD30B50368013311F806
:104C2000014B14B90360012030BD13F8012BA2F130
:104C30004105192D98BF2032A242F0D00020F3E7A1
:104C40002DE9F04F00250B6882465E1102EB8606C7
:104C500013F01F0318BF0436371FB9463C46AB4656
:104C600087B090460268019346F8045C029551783B
:104C7000531C039341B3084605920491FFF769FD65
:104C800000284FD10499059A202918D8029B9B45EA
:104C900013DD4C4506D2072D04DC2A464946204642
:104CA000FFF7A8FF444550D90023A4F1040944F8B4
:104CB000043C1D464C46CDF808B0039AD7E7292995
:104CC00056D10232CAF80020BBF1000F50D04C453B
:104CD00006D2072D04DC2A4649462046FFF78AFF04
:104CE000444534D92346A8F1040253F8041B9F42DB
:104CF00042F8041FF9D23B1B23F0030304330134B1
:104D0000033EB44288BF04230022434443F8042BEB
:104D10009F42FBD23B681BB9474527D101233B602B
:104D2000052026E00135082D0BF1010B06DD444579
:104D3000C3D90023012544F8043C043C226800F058
:104D40000F0040EA02122260B7E70825B5E7019B91
:104D5000002BDFD04FF0FF32C3F1200322FA03F320
:104D600056F8042C1A4046F8042CD3E7043FD1E748
:104D7000042007B0BDE8F08F38B504460846114658
:104D80000022054D2A601A4603F068FA431C02D13E
:104D90002B6803B1236038BD4806002082B001B9FA
:104DA00001A942B14BB113780B601278101E18BFE5
:104DB000012002B070471046FBE76FF00100F8E7F2
:104DC00070B5466A04460D4676B9102001F008FF1A
:104DD0000246606220B96621174B184801F014FDA5
:104DE000C0E901660660C660666AF36883B1636AFB
:104DF000DB6853F82500B8B9012101FA05F6721DE8
:104E00002046920000F094FC60B1C0E901560EE02B
:104E100021220421204600F08BFC636AF060DB68ED
:104E2000002BE4D1002070BD026843F82520002348
:104E3000C0E90333F7E700BFD0840008E784000827
:104E400070B5466A05460C4676B9102001F0C8FEDA
:104E50000246686220B98A21084B094801F0D4FC57
:104E6000C0E901660660C6603CB16B6A6268DB68D7
:104E700053F82210216043F8224070BDD08400080E
:104E8000E78400082DE9F04107460C461E46002045
:104E90000D6901F1140CDCF80030013099B202FB0D
:104EA00001611E0C0B0C02FB063389B201EB0341BE
:104EB00085424FEA13464CF8041BECDC0EB3A368A2
:104EC000AB4219DC616838460131FFF779FF804653
:104ED00028B90246B5210C4B0C4801F095FC22691B
:104EE00004F10C01023292000C30FEF7DFFC214687
:104EF0003846FFF7A5FF444604EB850301355E61A4
:104F000025612046BDE8F08120840008E784000880
:104F10002DE9F843154609221F4608330C4693FB3A
:104F2000F2F30646012200219A4209DB3046FFF7E0
:104F300047FF40B90246CE21184B194801F064FCE6
:104F400052000131F0E7089B092D43614FF0010346
:104F5000036116DD04F10909C8462C4418F8013B29
:104F600001460A223046303BFFF78CFFA045F5D1C1
:104F7000A5F108044C442D1B6319BB4204DBBDE8BA
:104F8000F88309250A34F6E714F8013B01460A22A2
:104F90003046303BFFF776FFEEE700BF2084000885
:104FA000E7840008020C12040346CAB90304102067
:104FB00013F07F4F04BF1B02083013F0704F04BF83
:104FC0001B01043013F0404F04BF9B000230002B44
:104FD00005DB13F0804F00F1010008BF202070476F
:104FE0000020E5E70368024613F007000BD0D9075D
:104FF00021D4980749BF5B089B08012013605CBF60
:1050000002201360704799B209B910201B0CD9B265
:1050100009B908301B0A190704BF1B090430990796
:1050200004BF9B080230D90703D45B0800F10100DC
:1050300003D01360704700207047202070470000A5
:1050400010B50C460121FFF7BBFE024628B94FF40C
:10505000A071044B044801F0D7FB012344610361B4
:1050600010BD00BF20840008E78400082DE9F04F40
:1050700091460A69D9F810300C469A42BEBF0B46D9
:105080004C4699462769D9F810A0A368616807EBD8
:105090000A06B34285B0B8BF0131FFF791FE30B9BF
:1050A000024640F25D11434B434801F0ADFB00F175
:1050B00014052B46002205EB8608434521D304F155
:1050C000140303EB870709F1140303EB8A0202922E
:1050D0003A1B153A22F00302043204F115018F4203
:1050E00038BF04220192029A03939A420CD8002EF0
:1050F00003DD58F8043D002B59D0066105B0BDE82A
:10510000F08F43F8042BD8E7B3F800A0BAF1000FF2
:1051100023D0A9464FF0000C04F1140E5EF8042BC6
:10512000D9F800101FFA82FB89B20AFB0B11614407
:10513000D9F800C0120C4FEA1C4C0AFB02C202EB69
:10514000114289B241EA024177454FEA124C49F8CF
:10515000041BE3D8019A45F802C0039A0433B2F85D
:105160000290B9F1000F20D0AE464FF0000A296836
:1051700004F1140CBCF800B0BEF8022089B209FB9F
:105180000B22924441EA0A414EF8041B5CF8042BBE
:10519000BEF80010120C09FB0211674501EB1A4121
:1051A0004FEA114AE6D8019AA95004359BE7013E1F
:1051B0009DE700BF20840008E78400082DE9F8433C
:1051C000154612F0030206460F4607D0254C013A59
:1051D000002354F82220FFF755FE0746AD103DD0BE
:1051E000746A7CB9102001F0FBFC0246706228B999
:1051F0004FF4D7711C4B1D4801F006FBC0E9014478
:105200000460C460D6F82480D8F808404CB940F255
:1052100071213046FFF714FF00230446C8F8080048
:1052200003604FF00009EB070AD5394622463046A5
:10523000FFF71CFF804639463046FFF701FE474620
:105240006D100BD0206838B9224621463046FFF752
:105250000DFF2060C0F800900446E4E73846BDE842
:10526000F88300BF58860008D0840008E78400084F
:105270002DE9F0470C46074691462369496803EB40
:105280006218A3684FEA621A08F10106B3420BDB09
:105290003846FFF795FD054648B9024640F2D91158
:1052A000294B2A4801F0B0FA01315B00EEE70023F8
:1052B00000F1140100F110021846534537DB206954
:1052C0002AEAEA7A04F1140319F01F0901EB8A01B2
:1052D00003EB80002FD08A464FF0000CC9F1200E5E
:1052E0001A6802FA09F242EA0C024AF8042B53F84F
:1052F000042B984222FA0EFCF2D8031B153B23F034
:105300000303043304F11502904238BF042341F82B
:1053100003C0BCF1000F01D008F10206013E38467F
:1053200021462E61FFF78CFD2846BDE8F08742F844
:10533000040F0133C1E7043953F8042B984241F8B4
:10534000042FF9D8EAE700BF20840008E7840008AA
:1053500003460A69006930B5801A0DD1143314313F
:1053600003EB820401EB820154F8045D51F8042D33
:10537000954202D004D3012030BDA342F4D3FBE711
:105380004FF0FF30F8E700002DE9F84F0D460746D3
:10539000114628461446FFF7DBFF061E11D13146A1
:1053A0003846FFF70DFD024628B940F232213A4B4C
:1053B0003A4801F029FA0123C0E904361046BDE855
:1053C000F88FA4BF23462C4638466168A6BF1D4609
:1053D00000260126FFF7F4FC024618B94FF41071BD
:1053E0002D4BE5E702F11408C2464FF0000C276987
:1053F000C6602E6904F1140005F1140900EB870E54
:1054000009EB8606103454F804BF59F8043B1FFA20
:105410008BF18C4499B21B0CACEB0101C3EB1B4329
:1054200003EB214389B24FEA234C4E4541EA034343
:105430004AF8043BE7D8731B153B23F003031535EB
:105440000433AE4238BF0423184443441E46054685
:1054500075450ED30EF10301091A21F0030103383B
:10546000864538BF0021194451F8043D8BB11761BE
:10547000A4E755F8048B1FFA88F161440C1404EB7F
:10548000184489B241EA04414FEA244C46F8041B0F
:10549000DEE7013FE8E700BF20840008E78400085A
:1054A000114B0B40A3F15073002B02DD0020194675
:1054B00070475B42B3F1A07F4FF000004FF0000156
:1054C0004FEA235204DA4FF4002343FA02F1704703
:1054D000A2F114031E2BD6BF4FF00042012322FA83
:1054E00003F31846704700BF0000F07F2DE9F84332
:1054F000076900F1140909EB870757F8046CA7F155
:1055000004083046FFF74EFDC0F120030A280B6067
:105510001F4917DCC14528BF0022C0F10B0C26FA39
:105520000CF338BF57F8082C43EA010500F11503C6
:1055300006FA03F322FA0CF243EA02042046294653
:10554000BDE8F883C1452EBF002257F8082CA7F10B
:105550000808B0F10B0316D0C3F1200722FA07F1B7
:10556000C84506FA03F646EA010694BF002158F83A
:10557000041C46F07F5502FA03F0F94045F440154B
:1055800040EA0104DAE7144646EA0105D6E700BF1F
:105590000000F03F2DE9F3410121DDE90876904656
:1055A0001D46FFF70DFC044630B9024640F20A31B1
:1055B000244B254801F028F9C5F31303C5F30A5518
:1055C0002DBB0193B8F1000326D068460093FFF786
:1055D00009FD0099F0B1019AC0F1200302FA03F32A
:1055E0000B43C24063610192019B002B14BF022157
:1055F0000121A3612161C5B1A5F233450544C0F184
:1056000035003D603060204602B0BDE8F08143F4D3
:105610008013D6E76161E7E701A8FFF7E3FC01210A
:10562000019B216163612030E5E704EB8103A0F277
:10563000324038601869FFF7B5FCC0EB41113160AA
:10564000E1E700BF20840008E78400082DE9F74F58
:10565000884669468146FFF749FF0F4604460D46D6
:10566000404601A9FFF742FFD9F81030D8F81020C2
:105670008B46A3EB020CDDE900329B1A03EB4C13C3
:10568000002BD5BF0A462A46C3EB033302EB035770
:10569000D8BF02EB035B5B46024639462046FBF768
:1056A00045F803B0BDE8F08F013970B549111469B0
:1056B000013102F1140300EB810103EB8404051FA7
:1056C000A3420CD3A31A113B23F003031132A242CD
:1056D00088BF002318440023884205D370BD53F8C7
:1056E000046B45F8046FEBE740F8043BF4E700F186
:1056F000140200694B11984210B511DB0ADD11F05C
:105700001F0107D052F8234024FA01F000FA01F1FA
:105710008C420BD102EB8303934203D8002010BDCF
:105720000346F7E753F8041D0029F5D00120F6E7FA
:1057300070B5A1FB025434B9294600F02DF8064695
:1057400028B9304670BD0C2200260260F9E72A46CF
:105750002146FEF7B9F8F4E770B50E4E0C463168F5
:10576000054611B900F0BCFE30602146284600F025
:10577000B7FE431C0AD0C41C24F00304A04207D087
:10578000211A284600F0ACFE013001D14FF0FF3461
:10579000204670BD440600202DE9F041CD1C25F0C7
:1057A000030508350C2D38BF0C25002D074601DBFD
:1057B000A94205D90C2300263B603046BDE8F081A4
:1057C0002E4E01F03DFA33681C4634BB294638465C
:1057D000FFF7C2FF431C04464DD134682646002E15
:1057E00040D123683146384604EB030800F078FEC8
:1057F00080453AD1216803356D1A25F00305083537
:105800000C2D38BF0C2538462946FFF7A5FF01307F
:105810002BD023682B4423600EE02268521B1ED439
:105820000B2A16D96119A342256018BF5960636815
:1058300008BF316062514B60384604F10B0601F03D
:1058400005FA26F00706231DF21AB6D09B1BA350BB
:10585000B3E76268A3420CBF32605A60ECE72346AC
:105860006468B2E734467668B9E70C2338463B6093
:1058700001F0ECF9A1E72560DEE700BF400600205B
:105880002DE9F0478E6882469E420C4690461F46A0
:1058900038D88A8912F4906F32D0256809690133AB
:1058A000A5EB010965694B4405EB450505EBD5758D
:1058B0006D109D4238BF1D46530531D52946FFF76F
:1058C0006BFF064650B90C234FF0FF30CAF800308A
:1058D000A38943F04003A381BDE8F0874A462169CC
:1058E000FDF7E4FFA38923F4906343F08003A381D1
:1058F00026614E4426603E466561A5EB0905A5601C
:10590000BE4200D93E4632464146206801F07EF94B
:10591000A36800209B1BA360236833442360DBE75C
:105920002A4601F0E1F906460028E1D150462169F6
:1059300001F092F9C7E700002DE9F04F98468B89F6
:1059400007461B060D4614469DB00ED50B6963B97C
:105950004021FFF721FF2860286120B90C233B601C
:105960004FF0FF30D1E040236B61002309932023E7
:105970008DF8293030234FF00109CDF80C80DFF885
:10598000A4818DF82A3023469A4613F8012B0AB1D8
:10599000252AF9D1BAEB040B0BD05B4622462946E7
:1059A0003846FFF76DFF013000F0AA80099A5A448B
:1059B00009929AF80030002B00F0A28000234FF0EB
:1059C000FF32CDE905230AF1010A049307938DF80C
:1059D00053301A935446052214F8011B514801F024
:1059E00007F9049AD8B9D00644BF20238DF8533064
:1059F000110744BF2B238DF853309AF800302A2B1F
:105A000015D0544600204FF00A0C079A214611F891
:105A1000013B303B092B4ED9B0B1079214E0A0EB0B
:105A2000080309FA03F31343A2460493D2E7039B46
:105A3000191D1B680391002BBBBF5B4242F00202A1
:105A400007930793B8BF049223782E2B0CD1637869
:105A50002A2B35D1039B02341A1D1B680392002B9D
:105A6000B8BF4FF0FF330593DFF8BCA003225046C8
:105A7000217801F0BDF840B14023A0EB0A0003FA01
:105A800000F0049B01340343049314F8011B062225
:105A900026488DF8281001F0ABF8002838D0244BA8
:105AA0001BBB039B073323F0070308330393099BB6
:105AB0003344099367E70C4601200CFB0232A5E74B
:105AC00000234FF00A0C194601340593204610F8C4
:105AD000012B303A092A03D9002BC5D00591C3E721
