:020000040800F2
:1000000000500020DD200008050A0008070A00084B
:10001000090A00080B0A00080D0A00080000000089
:100020000000000000000000000000000F0A0008AF
:10003000110A000800000000130A0008150A000851
:100040002521000825210008252100082521000878
:100050002521000825210008252100082521000868
:100060002521000825210008252100082521000858
:100070002521000825210008252100082521000848
:100080002521000825210008252100082521000838
:100090002521000825210008252100082521000828
:1000A0002521000825210008252100082521000818
:1000B0001D0A00082D0A0008252100082521000836
:1000C00025210008252100082521000825210008F8
:1000D00025210008252100083D0A000825210008E7
:1000E0002521000825210008252100080000000026
:1000F0000000000000000000000000000000000000
:0C01000000000000000000005FF808F1A3
:10010C0010B5054C237833B9044B13B10448AFF345
:10011C0000800123237010BD70000020000000003F
:10012C004834000808B5034B1BB103490348AFF32F
:10013C00008008BD00000000740000204834000856
:10014C00034613F8012B002AFBD1181A013870470B
:10015C0008B5034B834200D008BD00F0FBF9FBE768
:10016C00F806002008B5064B984203D0054B984280
:10017C0003D008BD00F08AFAFBE700F04DFAF8E76F
:10018C0038010020F000002072B6FEE700B591B0F7
:10019C002822002106A801F0F3FF0023019302930B
:1001AC00039304930593012206924FF48033079333
:1001BC000A9202220D920E934FF4E0130F9306A8AD
:1001CC0000F028FF80B90F23019302210291002334
:1001DC0003934FF480620492059301A801F05AF93D
:1001EC0020B911B05DF804FBFFF7CEFFFFF7CCFF91
:1001FC0000B583B000F0C0FEFFF7C8FF00F04AF86E
:10020C0000F0A0F800F06CFB00F050FB00F0D2F80E
:10021C000CE001224FF48071164801F030FB4FF4D2
:10022C007A7000F0CDFE144B00221A704FF48051FE
:10023C00104801F01DFB0028EBD000F01BFB6420E4
:10024C0000F0BEFE00F042FA0C4C0D4B01930D4B2E
:10025C0000930D4B0D4A0E49204601F099FF2046A4
:10026C0000F040FA4FF47A7000F0AAFE00F05CFA4D
:10027C00FEE700BF00080140000000208C000020B9
:10028C00A8340008D834000880340008B0340008C2
:10029C006C340008F0B589B00024049405940694DD
:1002AC000794254B9A6942F020029A619A6902F0F0
:1002BC0020020192019A9A6942F004029A619A69A9
:1002CC0002F004020292029A9A6942F008029A61C0
:1002DC009B6903F008030393039B184D22464FF4CC
:1002EC008071284601F0CBFA154E0122F0213046E0
:1002FC0001F0C5FA4FF48073049301270597069417
:10030C000223079304A9284601F0A0F94FF4805367
:10031C0004930594069404A9284601F097F9F02358
:10032C000493059706940323079304A9304601F020
:10033C008DF909B0F0BD00BF00100240000801406B
:10034C00000C014000B587B0002302930393049383
:10035C0005930093019316484FF08042026041F6DA
:10036C001F424260836040F2E732C26003618361E6
:10037C0000F0FEFC90B94FF48053029302A90C4894
:10038C0000F02EFD68B900230093019369460848DC
:10039C0000F094FD40B907B05DF804FBFFF7F4FEE4
:1003AC00E9E7FFF7F1FEEEE7FFF7EEFEF3E700BF3C
:1003BC00F000002000B587B0002302930393049350
:1003CC000593009301931548154A026043F63F02CA
:1003DC00426083604CF24F32C2600361836100F073
:1003EC00C7FC90B94FF48053029302A90B4800F05C
:1003FC00F7FC68B90023009301936946074800F0A5
:10040C005DFD40B907B05DF804FBFFF7BDFEE9E701
:10041C00FFF7BAFEEEE7FFF7B7FEF3E7380100206F
:10042C000004004000B583B00368B3F1804F05D0E1
:10043C00164A934216D003B05DF804FB03F504335F
:10044C00DA6942F00102DA61DB6903F0010300931F
:10045C00009B002201211C2001F098FA1C2001F0C5
:10046C00CDFAE8E70A4BDA6942F00202DA61DB699D
:10047C0003F002030193019B002201211D2001F0D6
:10048C0085FA1D2001F0BAFAD5E700BF0004004040
:10049C000010024008B513460A460146014801F017
:1004AC00C8FB08BDB4060020F8B504460E46154638
:1004BC00234F01222349384601F0EDFD2046FFF77A
:1004CC003FFE642281B22046FFF7E4FF2046FFF78F
:1004DC0037FE82B22146384601F017FC1A4800F06C
:1004EC00FFFA1A4B1C78012CFBD1194F3846FFF739
:1004FC0027FE642281B23846FFF7CCFF012D04D1D0
:10050C003146384601F09DFE68B1114D2846FFF783
:10051C0017FE02460021284601F032FE0B4B00224A
:10052C001A702046F8BD3846FFF70AFE0246002135
:10053C00384601F025FE0024044B1C70F1E700BF87
:10054C00F8060020F5010020F0000020F401002046
:10055C005006002010B5274B1B782BBB4FF0804367
:10056C0000225A62244A1368591C1160234C2449F6
:10057C000A78E2540122234801F08DFD22492046DD
:10058C0001F05FFE18B11C4B1B68022B00D010BD94
:10059C002046FFF7D5FD02460021204601F0F0FD74
:1005AC00154B00221A60F2E7184B00225A62184AC7
:1005BC001368591C1160174C11490A78E254012236
:1005CC00104801F068FD1049204601F03AFE002861
:1005DC00DDD00F4B1B68022BD9D12046FFF7B0FDA5
:1005EC0002460021204601F0CBFD094B00221A6087
:1005FC00CDE700BF8C010020F80100209001002005
:10060C00F5010020F8060020F83400080004004032
:10061C004C060020FC01002038B5164800F094FA76
:10062C004FF0804300225A62134D1449284601F0C2
:10063C0008FE04463E21284601F0F6FD002808BFBE
:10064C00002C03D10E4B01221A7038BD2846FFF73F
:10065C0077FD024629460B4801F084FD2846FFF73A
:10066C006FFD02460021284601F08AFD064B002250
:10067C001A60E7E7F000002090010020F834000831
:10068C00F401002050060020F801002008B50648AF
:10069C0000F05AFA0023054A5362054A1370054BC1
:1006AC0001221A7008BD00BF38010020002C014047
:1006BC008C0100204806002008B564220B2102485A
:1006CC00FFF7E8FE72B6FEE7E034000808B5012239
:1006DC0002490348FFF7E8FE08BD00BFA835000833
:1006EC000C35000830B59BB00546002401946022FF
:1006FC00214602A801F044FD2A46084901A801F050
:10070C0047FD642213210648FFF7C4FE2246054923
:10071C0001A8FFF7C9FE1BB030BD00BF1C35000897
:10072C0038350008A835000830B583B001222C4BB1
:10073C001A702C4B41F28731D9622B4C2B49204635
:10074C0001F0A9FC2A4D642211212846FFF7A2FED4
:10075C0011222946204601F0D8FA264800F0C0F9AB
:10076C00254B1B78012BFBD1244C04F1080300937F
:10077C00231D22462249234801F02AFD6368C82B19
:10078C0026D10122164B1A70164B4CF24F31D962FE
:10079C00154C1649204601F07EFC1B4D64220D21A0
:1007AC002846FFF777FE0D222946204601F0ADFAC8
:1007BC00114B1C78012CFBD1124D2846FFF7C0FCC5
:1007CC00642281B22846FFF765FE204603B030BD97
:1007DC0064220C210D48FFF75DFE0024F5E700BFF5
:1007EC008C01002000040040F8060020F5010020D8
:1007FC004C350008380100204806002080010020FC
:10080C0060350008FC0100207835000888350008A8
:10081C0008B503E04FF4FA7000F0D2FB01220E4948
:10082C000E48FFF741FE0128F4D10D4B1B785BB944
:10083C0001220C490C48FFF737FE012804D04FF475
:10084C00FA7000F0BDFBF3E7642316220749084851
:10085C0001F0EFF908BD00BF98350008B03500086D
:10086C0000000020A8350008BC350008CC35000875
:10087C00B406002008B5002209490A48FFF714FE07
:10088C00012809D1012206490748FFF70DFE01286E
:10089C0004D1FFF7BDFF08BDFFF70EFFFFF70CFFFC
:1008AC00A8350008E4350008EC35000808B50A48FE
:1008BC000A4B03604FF4E133436000238360C36051
:1008CC0003610C2242618361C36101F083F900B9B9
:1008DC0008BDFFF759FCFBE7B406002000380140C7
:1008EC0008B50A480A4B03604FF4E1334360002318
:1008FC008360C36003610C2242618361C36101F0B8
:10090C0069F900B908BDFFF73FFCFBE7F8060020CA
:10091C000044004070B588B00023049305930693FF
:10092C0007930368304A934204D0304A93422BD049
:10093C0008B070BD2E4B9A6942F480429A619A6954
:10094C0002F480420092009A9A6942F004029A6181
:10095C009B6903F004030193019B4FF40073049310
:10096C000223059303230793224C04A9204600F08D
:10097C006DFE4FF48063049300230593069304A942
:10098C00204600F063FED3E7194BDA6942F40032DB
:10099C00DA61DA6902F400320292029A9A6942F040
:1009AC0004029A619B6903F004030393039B0423E1
:1009BC00049302250595032307930E4E04A9304694
:1009CC0000F044FE0823049300240594069404A923
:1009DC00304600F03BFE22462946262000F0D6FF8A
:1009EC00262001F00BF8A3E700380140004400403A
:1009FC000010024000080140FEE7FEE7FEE7FEE7BC
:100A0C00FEE770477047704708B500F0C7FA08BD9D
:100A1C0008B5024800F0B5F808BD00BFF000002092
:100A2C0008B5024800F0ADF808BD00BF3801002041
:100A3C0008B5024801F012FA08BD00BFF806002004
:100A4C0082B00E4B9A6942F001029A619A6902F0E7
:100A5C0001020092009ADA6942F08052DA61DB6995
:100A6C0003F080530193019B054A536823F0E06324
:100A7C0043F00073536002B0704700BF0010024097
:100A8C000000014010B4036A046A24F001040462FB
:100A9C00846924F0F00C4CEA021223F00A030B4395
:100AAC008261036210BC704710B4046A24F0100415
:100ABC0004628469036A24F4704C4CEA023223F019
:100ACC00A00343EA01138261036210BC7047836880
:100ADC0023F070030B4343F007038360704700005F
:100AEC0090F83D30DBB2012B27D1022380F83D304A
:100AFC000268D36843F00103D3600368114A934240
:100B0C0010D0B3F1804F0DD0A2F59432934209D09E
:100B1C0002F58062934205D01A6842F001021A6015
:100B2C00002070479A6802F00702062A07D01A685C
:100B3C0042F001021A60002070470120704700202B
:100B4C00704700BF002C01400268D36823F00103FA
:100B5C00D3600368196A41F21112114208D1196A63
:100B6C0040F24442114203D11A6822F001021A6089
:100B7C00012380F83D300020704770477047704764
:100B8C00704710B5044603681A6912F0020F11D0B1
:100B9C00DA6812F0020F0DD06FF002021A61012315
:100BAC00037703689B6913F0030F70D0FFF7E6FF20
:100BBC000023237723681A6912F0040F12D0DA6825
:100BCC0012F0040F0ED06FF004021A610223237787
:100BDC0023689B6913F4407F5FD02046FFF7CEFF5C
:100BEC000023237723681A6912F0080F12D0DA68F1
:100BFC0012F0080F0ED06FF008021A61042323774D
:100C0C002368DB6913F0030F4ED02046FFF7B6FFC5
:100C1C000023237723681A6912F0100F12D0DA68B8
:100C2C0012F0100F0ED06FF010021A610823237708
:100C3C002368DB6913F4407F3DD02046FFF79EFF0D
:100C4C000023237723681A6912F0010F03D0DA68A6
:100C5C0012F0010F36D123681A6912F0800F03D0FD
:100C6C00DA6812F0800F34D123681A6912F0400F41
:100C7C0003D0DA6812F0400F32D123681A6912F0EF
:100C8C00200F03D0DA6812F0200F30D110BDFFF71F
:100C9C0074FF2046FFF773FF8AE72046FFF76DFFCE
:100CAC002046FFF76CFF9BE72046FFF766FF2046C8
:100CBC00FFF765FFACE72046FFF75FFF2046FFF725
:100CCC005EFFBDE76FF001021A612046FFF74AFA9A
:100CDC00C1E76FF080021A61204600F026F9C3E7E5
:100CEC006FF040021A612046FFF74AFFC5E76FF02C
:100CFC0020021A61204600F017F9C7E703681B4A67
:100D0C0090420AD0B0F1804F07D0A2F594329042B5
:100D1C0003D002F58062904203D123F070034A683D
:100D2C001343124A90420AD0B0F1804F07D0A2F57B
:100D3C009432904203D002F58062904203D123F4A6
:100D4C004073CA68134323F080034A69134303605A
:100D5C008B68C3620B688362044B984202D00123F8
:100D6C00436170470B690363F9E700BF002C014036
:100D7C0040B310B5044690F83D30F3B1022384F82B
:100D8C003D30214651F8040BFFF7B8FF012384F8DE
:100D9C00463084F83E3084F83F3084F8403084F894
:100DAC00413084F8423084F8433084F8443084F87D
:100DBC00453084F83D30002010BD80F83C30FFF702
:100DCC0031FBDBE70120704710B4846824F47F4CBE
:100DDC0042EA03220A4342EA0C02826010BC7047CA
:100DEC0090F83C30012B66D010B50446012380F8F6
:100DFC003C30022380F83D300268936823F47F4333
:100E0C0023F0770393600B68602B40D022D8402BE3
:100E1C0047D00BD9502B0ED1CA6849680068FFF730
:100E2C0031FE50212068FFF752FE04E0202B0CD03D
:100E3C0008D9302B09D0012384F83D30002084F8E8
:100E4C003C0010BD0BB1102BF5D119462068FFF7F3
:100E5C003EFEF0E7702B0ED0B3F5005FEBD1CB6804
:100E6C004A6889680068FFF7AFFF2268936843F40B
:100E7C0080439360DFE7CB684A6889680068FFF7B6
:100E8C00A3FF2268936843F077039360D3E7CA68A3
:100E9C0049680068FFF708FE60212068FFF717FE1D
:100EAC00C9E7CA6849680068FFF7ECFD4021206873
:100EBC00FFF70DFEBFE702207047000090F83C30B2
:100ECC00012B2CD010B4012380F83C30022380F885
:100EDC003D3003685A689C6822F0700C0A6842EA3C
:100EEC000C025A6003680F4A93420AD0B3F1804F48
:100EFC0007D0A2F59432934203D002F5806293425C
:100F0C0004D124F080044A6814439C60012380F8C7
:100F1C003D30002380F83C30184610BC704702204E
:100F2C00704700BF002C01407047704710B5044655
:100F3C000E4B18784FF47A73B3FBF0F30C4A10682D
:100F4C00B0FBF3F000F068FD68B90F2C01D901205B
:100F5C000AE0002221464FF0FF3000F017FD054B50
:100F6C001C60002000E0012010BD00BF010000202B
:100F7C00080000200400002008B5074A136843F05D
:100F8C0010031360032000F0EFFC0F20FFF7CEFFDF
:100F9C00FFF756FD002008BD00200240034A1168EF
:100FAC00034B1B780B441360704700BF3C070020B9
:100FBC0001000020014B1868704700BF3C0700205F
:100FCC0038B50446FFF7F6FF0546B4F1FF3F02D0F3
:100FDC00044B1B781C44FFF7EDFF401BA042FAD3D7
:100FEC0038BD00BF0100002082B0084B1B68084AC6
:100FFC00A2FB03235B0A00FB03F3019300BF019BDD
:10100C005A1E0192002BF9D102B070470800002043
:10101C00D34D6210002800F0F18170B582B0044607
:10102C00036813F0010F2CD0994B5B6803F00C0391
:10103C00042B1DD0964B5B6803F00C03082B12D0CD
:10104C006368B3F5803F41D0002B55D103F1804349
:10105C0003F504331A6822F480321A601A6822F4F9
:10106C0080221A6037E08A4B5B6813F4803FE7D02C
:10107C00874B1B6813F4003F03D06368002B00F010
:10108C00BF81236813F0020F75D0814B5B6813F09E
:10109C000C0F5FD07E4B5B6803F00C03082B54D015
:1010AC002369002B00F08A807A4B01221A60FFF72B
:1010BC0081FF0546764B1B6813F0020F75D1FFF7C5
:1010CC0079FF401B0228F5D903209EE1704A136872
:1010DC0043F480331360636843B3FFF76BFF05463B
:1010EC006B4B1B6813F4003FCBD1FFF763FF401B26
:1010FC006428F5D9032088E1B3F5A02F09D0644BFF
:10110C001A6822F480321A601A6822F480221A605B
:10111C00E1E703F18043A3F53C331A6842F48022E3
:10112C001A601A6842F480321A60D4E7FFF742FF63
:10113C000546574B1B6813F4003FA2D0FFF73AFF4C
:10114C00401B6428F5D903205FE1514B5B6813F415
:10115C00803FA5D14E4B1B6813F0020F03D02369BF
:10116C00012B40F04F814A4A136823F0F803616960
:10117C0043EAC1031360236813F0080F33D0A3694B
:10118C00002B5CD0434B0122C3F88024FFF712FFE5
:10119C0005463F4B5B6A13F0020F21D1FFF70AFFA4
:1011AC00401B0228F5D903202FE1394A136823F09C
:1011BC00F803616943EAC1031360DCE7354B002295
:1011CC001A60FFF7F7FE0546314B1B6813F0020F50
:1011DC00D1D0FFF7EFFE401B0228F5D9032014E114
:1011EC000120FFF701FF236813F0040F00F0968035
:1011FC00274BDB6913F0805F34D1254BDA6942F061
:10120C008052DA61DB6903F080530193019B012565
:10121C00214B1B6813F4807F26D0E368012B3DD053
:10122C00002B53D103F1804303F504331A6A22F0E7
:10123C0001021A621A6A22F004021A6233E0154B98
:10124C000022C3F88024FFF7B5FE0546104B5B6AFD
:10125C0013F0020FC7D0FFF7ADFE401B0228F5D9E3
:10126C000320D2E00025D3E70B4A136843F48073C4
:10127C001360FFF79FFE0646074B1B6813F4807F35
:10128C00CBD1FFF797FE801B6428F5D90320BCE077
:10129C000010024000004242007000405F4A136A96
:1012AC0043F001031362E36833B3FFF783FE064692
:1012BC005A4B1B6A13F0020F2FD1FFF77BFE801BDA
:1012CC0041F288339842F3D903209EE0052B09D0D4
:1012DC00524B1A6A22F001021A621A6A22F00402B4
:1012EC001A62E0E74D4B1A6A42F004021A621A6A5B
:1012FC0042F001021A62D6E7FFF75CFE0646474B46
:10130C001B6A13F0020F08D0FFF754FE801B41F24A
:10131C0088339842F3D9032077E0E5B9E369002BD1
:10132C0072D03E4A526802F00C02082A56D0022BA8
:10133C0017D03B4B00221A66FFF73CFE0446374B96
:10134C001B6813F0007F47D0FFF734FE001B022808
:10135C00F5D9032059E0314AD36923F08053D36186
:10136C00DCE72F4B00221A66FFF724FE05462B4BB9
:10137C001B6813F0007F06D0FFF71CFE401B0228F1
:10138C00F5D9032041E0236AB3F5803F1AD02349F5
:10139C004B6823F47413226A606A024313434B6054
:1013AC001F4B01221A66FFF705FE04461B4B1B68F8
:1013BC0013F0007F0ED1FFF7FDFD001B0228F5D9BD
:1013CC00032022E0154A536823F40033A1680B4331
:1013DC005360DCE7002018E0002016E0012B16D04B
:1013EC000E4B5B6803F48031226A914211D103F4F5
:1013FC007013626A93420ED1002006E00120704700
:10140C00012002E0012000E0002002B070BD0120AC
:10141C00FBE70120F9E70120F7E700BF00100240CD
:10142C000000424286B0174B0FCB0DF1180C0CE9A3
:10143C000F0040F20123ADF80430134B5B6803F04E
:10144C000C02082A02D0114806B07047C3F383423D
:10145C0018326A4412F8100C13F4803F0DD00A4B6A
:10146C005B68C3F3404318336B4413F8143C074ACE
:10147C0002FB00F0B0FBF3F0E6E7054B03FB00F0DA
:10148C00E2E700BFF43500080010024000127A00B9
:10149C0000093D00002800F0A08070B50D46044600
:1014AC00524B1B6803F007038B420BD24F4A136855
:1014BC0023F007030B431360136803F007038B42FD
:1014CC0040F08D80236813F0020F17D013F0040F37
:1014DC0004D0474A536843F4E0635360236813F025
:1014EC00080F04D0424A536843F460535360404A97
:1014FC00536823F0F003A1680B435360236813F087
:10150C00010F31D06368012B20D0022B25D0384A33
:10151C00126812F0020F64D035494A6822F00302B7
:10152C0013434B60FFF746FD0646314B5B6803F0F7
:10153C000C036268B3EB820F16D0FFF73BFD801BE8
:10154C0041F288339842F0D9032045E0284A1268CA
:10155C0012F4003FE0D101203EE0254A126812F05F
:10156C00007FD9D1012037E0204B1B6803F0070323
:10157C00AB420AD91D4A136823F007032B431360AF
:10158C00136803F00703AB422DD1236813F0040F4B
:10159C0006D0174A536823F4E063E1680B435360A9
:1015AC00236813F0080F07D0114A536823F46053D3
:1015BC00216943EAC1035360FFF734FF0C4B5B68AE
:1015CC00C3F303130B4AD35CD8400B4B18600B4B83
:1015DC001868FFF7ABFC002070BD0120704701209C
:1015EC00FAE70120F8E70120F6E700BF00200240EF
:1015FC0000100240083600080800002004000020FB
:10160C00014B1868704700BF0800002008B5FFF7B1
:10161C00F7FF044B5B68C3F30223034AD35CD84047
:10162C0008BD00BF001002401836000808B5FFF7CF
:10163C00E7FF044B5B68C3F3C223034AD35CD84077
:10164C0008BD00BF001002401836000870B582B00B
:10165C000024A446A6E0804DAA4210D007D97F4DA5
:10166C00AA420CD005F58035AA4208D013E0A5F5A6
:10167C008015AA4203D005F57025AA4207D18A68C5
:10168C00002A58D0012A51D04361082403E0A5F563
:10169C008015AA42F3D0BEF1FF0F4ED80646BEF11C
:1016AC00FF0F4CD84FEA8C0233680F25954023EA84
:1016BC00050304FA02F2134333604B6813F0805FA6
:1016CC006ED0674B9A6942F001029A619B6903F0F4
:1016DC0001030193019B4FEA9C02951C614B53F84B
:1016EC0025600CF003039D000F23AB4026EA030694
:1016FC005D4B984229D003F58063984200F08E80B0
:10170C0003F58063984200F08B8003F58063984268
:10171C0019D004231AE0CC68BDE7CC680434BAE7CE
:10172C00CC680834B7E7CC680C34B4E70361082400
:10173C00B1E70024AFE70424ADE7061DAFE7ACF139
:10174C0008029200B0E7032300E00023AB403343D0
:10175C000232444D45F822304B6813F4803F61D07F
:10176C00424A136843EA0E0313604B6813F4003FBC
:10177C005ED03E4A536843EA0E0353604B6813F441
:10178C00801F5BD0394A936843EA0E0393604B6821
:10179C0013F4001F58D0354AD36843EA0E03D360C4
:1017AC000CF1010C0A6832FA0CF353D0012303FA42
:1017BC000CF302EA030E33EA0202F1D14A68122A50
:1017CC003FF649AF122A3FF666AF01A555F822F055
:1017DC008B160008231700082D1700083F17000868
:1017EC00A3160008A3160008A3160008A3160008E9
:1017FC00A3160008A3160008A3160008A3160008D9
:10180C00A3160008A3160008A3160008A3160008C8
:10181C00A31600082717000833170008012395E7C3
:10182C00022393E7114A136823EA0E0313609CE723
:10183C000E4A536823EA0E0353609FE70B4A9368E2
:10184C0023EA0E039360A2E7084AD36823EA0E0347
:10185C00D360A5E702B070BD00002210000031106B
:10186C00001002400000014000080140000401404B
:10187C008368194201D001207047002070470AB1DB
:10188C000161704709040161704790F82130022B07
:10189C0006D004238363002380F820300120704796
:1018AC000268136823F00E0313600268136823F0B8
:1018BC0001031360036CC16B012202FA03F34B604A
:1018CC0080F82120002380F8203018467047000053
:1018DC0008B590F82130022B03D004238363012038
:1018EC0008BD0268136823F00E03136002681368C6
:1018FC0023F0010313600368194A934214D0143285
:10190C0093421FD0143293421ED0143293421ED0F5
:10191C00143293421ED01432934202D04FF0807294
:10192C0003E04FF4801200E001220E4B5A600123B9
:10193C0080F82130002380F82030436B6BB198473E
:10194C000020CDE71022F0E74FF48072EDE74FF462
:10195C008052EAE74FF48032E7E70020C0E700BF8F
:10196C000800024000000240074AD36823F4E063F9
:10197C001B041B0C000200F4E060034343F0BF6344
:10198C0043F40033D360704700ED00E000B5194B11
:10199C00DB68C3F30223C3F1070CBCF1040F28BFAF
:1019AC004FF0040C03F1040EBEF1060F18D9033BE3
:1019BC004FF0FF3E0EFA0CFC21EA0C0199400EFA96
:1019CC0003F322EA0303194300280BDB0901C9B214
:1019DC0000F1604000F5614080F800135DF804FBF5
:1019EC000023E5E700F00F000901C9B2024B1954BE
:1019FC00F4E700BF00ED00E014ED00E0002807DB89
:101A0C0000F01F02400901239340024A42F82030A3
:101A1C00704700BF00E100E00138B0F1807F0BD2CD
:101A2C004FF0E0235861054AF02182F82310002082
:101A3C00986107221A6170470120704700ED00E0A1
:101A4C000268D36823F49073D3600268536923F05F
:101A5C0001035361036B012B05D0202380F83E302A
:101A6C000023036370470268D36823F01003D3602C
:101A7C00F3E790F83D30DBB2212B01D00220704708
:101A8C008368B3F5805F17D0036A5A1C02621A7818
:101A9C0003685A60C38C9BB2013B9BB2C3844BB9A5
:101AAC000268D36823F08003D3600268D36843F0E4
:101ABC004003D360002070470369002BE4D1036A14
:101ACC001B880268C3F308035360036A0233036282
:101ADC00E0E7000010B504460268136923F4405394
:101AEC00C1680B43136183680269134342691A434B
:101AFC000168CB6823F4B05323F00C031343CB6081
:101B0C000268536923F4407381690B435361026883
:101B1C00134B9A4220D0FFF779FD024602EB82026A
:101B2C0002EB820263689B00B2FBF3F20D48A0FB50
:101B3C0002314909642303FB11231B013233A0FB3F
:101B4C0003235B0903F0F00202EB011203F00F0315
:101B5C00216813448B6010BDFFF768FD0246DDE77A
:101B6C00003801401F85EB512DE9F84305460F461F
:101B7C0016469946DDF820802C68246837EA040361
:101B8C000CBF4FF0010C4FF0000CB4451FD1B8F155
:101B9C00FF3FF1D0B8F1000F05D0FFF70BFAA0EB27
:101BAC0009004045E8D92A68D36823F4D073D36080
:101BBC002A68536923F001035361202385F83D30D3
:101BCC0085F83E30002385F83C30032000E00020EF
:101BDC00BDE8F88358B310B5044690F83D300BB30C
:101BEC00242384F83D302268D36823F40053D36057
:101BFC002046FFF76FFF2268136923F490431361AB
:101C0C002268536923F02A0353612268D36843F492
:101C1C000053D36000202064202384F83D3084F8E6
:101C2C003E3010BD80F83C30FEF774FED8E7012042
:101C3C0070472DE9F04182B01E4690F83D30DBB282
:101C4C00202B54D104460D469046002953D0002A2F
:101C5C0053D090F83C30012B51D0012380F83C300C
:101C6C0000230364212380F83D30FFF7A3F90746D6
:101C7C00A4F82480A4F82680A368B3F5805F05D06F
:101C8C004FF00008002384F83C3012E0236913B1B4
:101C9C004FF00008F6E7A8460025F3E738F8023BBA
:101CAC002268C3F308035360E28C92B2013A92B2F9
:101CBC00E284E38C9BB273B100963B4600228021F8
:101CCC002046FFF751FFE0B9002DE7D015F8012BA6
:101CDC0023685A60E8E700963B46002240212046E4
:101CEC00FFF742FF78B9202384F83D3000E0022052
:101CFC0002B0BDE8F0810120FAE70120F8E70220EC
:101D0C00F6E70320F4E70320F2E790F83D30DBB26E
:101D1C00202B19D1D1B1DAB190F83C30012B19D06C
:101D2C00012380F83C3001628284C2840023036466
:101D3C00212280F83D2080F83C300168CA6842F0CE
:101D4C008002CA6018467047022070470120704715
:101D5C000120704702207047704708B50168CA68B7
:101D6C0022F04002CA60202280F83D20FFF7F4FFE9
:101D7C00002008BD704708B5406A0023C385C384A2
:101D8C00FFF7F8FF08BD704790F83E30DBB2222B0E
:101D9C0060D18368B3F5805F46D0826AB3F5805F0B
:101DAC0004D0002B4DD10369002B4AD103685B682A
:101DBC001370836A01338362C38D9BB2013B9BB268
:101DCC00C385002B48D100B583B00268D36823F0DB
:101DDC002003D3600268D36823F48073D360026855
:101DEC00536923F001035361202380F83E30036BC9
:101DFC00012B2CD1002303630268D36823F010035A
:101E0C00D36003681A6812F0100F06D000220192FA
:101E1C001A6801925B680193019B818DFFF7B3FFF8
:101E2C00002003B05DF804FB0269002AB5D1826A78
:101E3C0003685B68C3F308031380836A023383620D
:101E4C00BAE703685B6803F07F031370B1E7FEF732
:101E5C007FF9E5E7022070470020704730B583B06A
:101E6C00044602681368D068516913F00F0505D158
:101E7C0013F0200F02D010F0200F19D12DB111F05A
:101E8C00010119D110F4907F16D1216B012975D065
:101E9C0013F0800F03D010F0800F40F0D78013F0B8
:101EAC00400F03D010F0400F40F0D48003B030BD91
:101EBC002046FFF769FFF9E713F0010F06D010F485
:101ECC00807F03D0226C42F00102226413F0040FD5
:101EDC0004D019B1226C42F00202226413F0020FFA
:101EEC0004D019B1226C42F00402226413F0080FE2
:101EFC0007D010F0200F00D119B1226C42F008026B
:101F0C002264226C002AD1D013F0200F02D010F0E2
:101F1C00200F21D123685B6903F04003226C12F07F
:101F2C00080F00D123B32046FFF78AFD23685A69B6
:101F3C0012F0400F18D05A6922F040025A61A36B7C
:101F4C0073B1464A5A63A06BFFF7C2FC0028ADD0B0
:101F5C00A06B436B9847A9E72046FFF715FFD9E71D
:101F6C002046FFF707FFA1E72046FFF703FF9DE799
:101F7C002046FFF7FFFE0023236497E713F0100FB2
:101F8C0086D010F0100F83D00023019313680193B7
:101F9C0053680193019B536913F0400F32D0A16B2E
:101FAC000B685B689BB2002B80D0A08D98427FF6AB
:101FBC007DAFE3858B69202B08D1A18DE38D9BB27E
:101FCC00C91A89B22046FFF7DEFE6FE7D36823F407
:101FDC008073D3602268536923F001035361226834
:101FEC00536923F040035361202384F83E300023CF
:101FFC0023632268D36823F01003D360A06BFFF730
:10200C0044FCDAE7A18DE38D9BB2C91A89B2E38D4A
:10201C009BB2002B3FF44AAF00293FF447AFD36883
:10202C0023F49073D3602268536923F00103536146
:10203C00202384F83E30002323632268D36823F0E6
:10204C001003D3602046FFF79EFE2FE72046FFF7D4
:10205C0010FD2BE72046FFF780FE27E7831D0008C5
:10206C00034681628285C28500201864222283F88F
:10207C003E2083F83C001968CA6842F48072CA603A
:10208C0019684A6942F001024A611A68D36843F040
:10209C002003D360704708B590F83E30DBB2202B9C
:1020AC000DD171B17AB190F83C30012B0DD00123D8
:1020BC0080F83C3000230363FFF7D2FF00E00220DE
:1020CC0008BD0120FCE70120FAE70220F8E7704781
:1020DC000C480D490D4A002302E0D458C450043377
:1020EC00C4188C42F9D30A4A0A4C002301E013604D
:1020FC000432A242FBD3FFF7EAFF00F00FF8FEF721
:10210C0077F870470000002070000020D8370008D6
:10211C007000002054070020FEE7000070B5002678
:10212C000C4D0D4C641BA410A64209D101F086F98C
:10213C0000260A4D0A4C641BA410A64205D170BDA2
:10214C0055F8043B98470136EEE755F8043B9847A1
:10215C000136F2E7D0370008D0370008D037000836
:10216C00D43700080A44914200F1FF3300D1704784
:10217C0010B511F8014B914203F8014FF9D110BD84
:10218C0003460244934200D1704703F8011BF9E760
:10219C000EB46FF0004100B59CB01DAB02900690E0
:1021AC00079104910848094953F8042B05910068DC
:1021BC0002A9019300F0B6F80022029B1A701CB021
:1021CC005DF804EB03B070470C0000200802FFFF21
:1021DC000EB44FF4017230B59CB01FAC54F8045BD4
:1021EC00ADF8142002900690FDF7AAFF0B4B03905C
:1021FC000B9300230F9314934FF6FF73079008482B
:10220C00ADF816302A46234602A90068019400F066
:10221C00E3F91CB0BDE8304003B070473122000830
:10222C000C000020002070470346C9B2184613F872
:10223C00012B12B18A42F9D17047002918BF002036
:10224C0070470A7870B56AB970BD9A4209D10C46CC
:10225C00054614F8013F002BF6D015F8016F9E428D
:10226C00F7D001300378002BEFD11846ECE72DE9BD
:10227C00F0478E6882469E420C4690461F4638D8E0
:10228C008A8912F4906F32D0256809690133A5EB65
:10229C00010965694B4405EB450505EBD5756D10DA
:1022AC009D4238BF1D46530531D5294600F0F0FF3D
:1022BC00064650B90C234FF0FF30CAF80030A38902
:1022CC0043F04003A381BDE8F0874A462169FFF73C
:1022DC0049FFA38923F4906343F08003A381266113
:1022EC004E4426603E466561A5EB0905A560BE42DD
:1022FC0000D93E4632464146206800F047FFA368AD
:10230C0000209B1BA360236833442360DBE72A4631
:10231C0001F032F806460028E1D15046216900F060
:10232C004FFFC7E72DE9F04F98468B8907461B06F0
:10233C000D4614469DB00ED50B6963B9402100F0D3
:10234C00A7FF2860286120B90C233B604FF0FF30B9
:10235C00D1E040236B610023099320238DF82930B1
:10236C0030234FF00109CDF80C80DFF8A4818DF8F3
:10237C002A3023469A4613F8012B0AB1252AF9D1A3
:10238C00BAEB040B0BD05B46224629463846FFF7C6
:10239C006EFF013000F0AA80099A5A4409929AF80B
:1023AC000030002B00F0A28000234FF0FF32CDE96B
:1023BC0005230AF1010A049307938DF853301A93FD
:1023CC005446052214F8011B514800F0D1FE049A22
:1023DC00D8B9D00644BF20238DF85330110744BF21
:1023EC002B238DF853309AF800302A2B15D05446F5
:1023FC0000204FF00A0C079A214611F8013B303BA4
:10240C00092B4ED9B0B1079214E0A0EB080309FADE
:10241C0003F31343A2460493D2E7039B191D1B68D5
:10242C000391002BBBBF5B4242F002020793079360
:10243C00B8BF049223782E2B0CD163782A2B35D17C
:10244C00039B02341A1D1B680392002BB8BF4FF07C
:10245C00FF330593DFF8BCA003225046217800F02F
:10246C0087FE40B14023A0EB0A0003FA00F0049B66
:10247C0001340343049314F8011B062226488DF8FB
:10248C00281000F075FE002838D0244B1BBB039B92
:10249C00073323F0070308330393099B3344099351
:1024AC0067E70C4601200CFB0232A5E700234FF036
:1024BC000A0C194601340593204610F8012B303ACA
:1024CC00092A03D9002BC5D00591C3E70446012383
:1024DC000CFB0121F0E703AB00932A463846104B66
:1024EC0004A9AFF30080421C0646D6D1AB895B062B
:1024FC003FF52CAF09981DB0BDE8F08F03AB0093EE
:10250C002A463846064B04A900F050FAEBE700BF08
:10251C0020360008263600082A3600080000000085
:10252C007B22000838B54B1C144603D14FF0FF3505
:10253C00284638BD9389CDB223F020039381636B79
:10254C0052688BB1A36B934208DD23685A1E22603C
:10255C0003F8015C636801336360E9E7214600F02E
:10256C00C7FD0028F1D0E1E72169236851B19942F8
:10257C0008D213F8011CA94204D1013B013223609B
:10258C006260D5E7C4E90F3204F1440363630323AB
:10259C00A363234603F8465F23600123DCE710B5F1
:1025AC000C46496B69B104F14403994201D000F027
:1025BC0007FE0020236C6063636013B1E36B236040
:1025CC0010BD23694FF0FF30236000236360A389A3
:1025DC0043F02003A381F3E72DE9F0470C460021DB
:1025EC000646ADF5227DCDE94411A7490DF104084D
:1025FC00A091A649A64FDFF89C92CDF81881A19125
:10260C0000931378002B00F05C81D95D551C11F000
:10261C00080119D06368002B0FDD23681A78BA5CA7
:10262C00120701D42A46ECE7459A01330132459250
:10263C0062682360013A6260ECE721463046A19B58
:10264C0098470028E9D0EDE7252B12D09A4663680D
:10265C00002B40F3948022681378534540F031816D
:10266C0063680132013B6360459B226001334593F3
:10267C00D8E74191439153782A2B04BF1023951C22
:10268C004FF00A0208BF4193AA461AF8011BA1F1A8
:10269C003003092B1DD903227E4800F069FD40B19F
:1026AC0001235546A0EB090003FA00F0419B1843A7
:1026BC00419015F8013B782B06D8572B10D8252BB9
:1026CC00C4D057D8002B65D0032347930A234293D9
:1026DC0072E0439B554602FB031130394391D3E71B
:1026EC00A3F15802202AEFD801A151F822F000BF23
:1026FC00AF270008D5260008D52600080D280008AD
:10270C00D5260008D5260008D5260008D5260008B1
:10271C00D5260008D5260008D52600082328000851
:10272C00F927000887270008872700088727000853
:10273C00D5260008FD270008D5260008D526000858
:10274C00D5260008D52600083328000805280008DF
:10275C00A7270008D5260008D52600082F28000832
:10276C00D5260008F9270008D5260008D52600082C
:10277C00AF270008453B022BA6D805231BE02146BA
:10278C003046A19B984700283FF465AF4498002839
:10279C0040F08D804FF0FF308FE0419A42F02002E4
:1027AC004192419A42F40072419210226F2B34BF35
:1027BC0003230423429247936368002B42DD419B21
:1027CC00590604D423681A78BA5C120741D4479B83
:1027DC00022B50DC6B462246304641A900F00CFA25
:1027EC0001286ED002287FF41DAFCFE70A22DDE767
:1027FC00002342930323DEE7082342930423DAE702
:10280C002946404600F04AFB419B054643F04003F5
:10281C0041930123CFE7419B43F0400341930023B5
:10282C00C9E70223C7E74198C3063FF5FBAE009BFF
:10283C00459A191D00911B6810F0010F14BF1A80E6
:10284C001A60EFE621463046A19B98470028B6D087
:10285C009CE7459A013245926268013A002A62600F
:10286C0002DD01332360ADE721463046A19B98473A
:10287C000028A7D08AE7042B0EDC6B462246304694
:10288C0041A900F013FAABE731250008AB2500088D
:10289C006F360008263600080B4B002B3FF4C2AEF7
:1028AC006B462246304641A9AFF3008098E7A389D6
:1028BC0013F0400F18BF4FF0FF300DF5227DBDE82F
:1028CC00F0874498F9E700BF000000002DE9F047BD
:1028DC00164699468A680B6907469342B8BF134659
:1028EC00336091F843200C46DDF820800AB10133A7
:1028FC0033602368990642BF33680233336025681E
:10290C0015F0060506D104F1190AE36832689B1A22
:10291C00AB4228DC94F84320131E226818BF012315
:10292C0092062DD44946384604F14302C047013083
:10293C0020D02368E56803F00603042B18BF00259C
:10294C0032684FF00006A36808BFAD1A226908BFB1
:10295C0025EAE5759342C4BF9B1AED181A34B542AB
:10296C001AD1002008E00123524649463846C04798
:10297C00013003D14FF0FF30BDE8F0870135C4E7DB
:10298C003020E11881F843005A1C94F84510224479
:10299C00023382F84310C5E70123224649463846E4
:1029AC00C0470130E6D00136D9E700002DE9FF47DA
:1029BC000F7E9146782F80460C469A460C9D01F16D
:1029CC00430207D8622F0AD8002F00F0D980582F65
:1029DC0000F0A48004F1420584F842703AE0A7F1BB
:1029EC006303152BF6D801A151F823F0512A0008E6
:1029FC00652A0008E1290008E1290008E1290008FE
:102A0C00E1290008652A0008E1290008E1290008ED
:102A1C00E1290008E1290008732B0008952A000819
:102A2C00552B0008E1290008E1290008952B000826
:102A3C00E1290008952A0008E1290008E12900088D
:102A4C005D2B00082B681A1D1B682A6004F14205D7
:102A5C0084F842300123A4E020682968060601F1BD
:102A6C0004030AD50E682B60002E03DA2D23764260
:102A7C0084F843300A235E4819E00E6810F0400FCA
:102A8C002B6018BF36B2EFE72B682068191D296040
:102A9C00010601D51E6802E04606FBD51E886F2F85
:102AAC000CBF08230A235248002184F843106568A0
:102ABC00002DA8BF2168A560A4BF21F004012160EE
:102ACC000EB9002D4DD01546B6FBF3F103FB116783
:102ADC00C75D05F8017D3746BB420E46F4D9082B7D
:102AEC000BD12368DE0708D5236961689942DEBFE4
:102AFC00302305F8013C05F1FF35521B22614B4692
:102B0C0021464046CDF800A003AAFFF7DFFE0130B6
:102B1C004CD14FF0FF3004B0BDE8F087344881F859
:102B2C0045702968236851F8046B29601D0614D57B
:102B3C00DF0744BF43F0200323601EB9236823F052
:102B4C00200323601023AFE7236843F020032360A6
:102B5C007823284884F84530E3E7590648BFB6B2D5
:102B6C00E6E71546BBE72B682668181D61692860E7
:102B7C0035061B6801D5196002E07006FBD519807B
:102B8C00002315462361BAE72B6800211A1D2A6021
:102B9C001D686268284600F0EBFA08B1401B6060C3
:102BAC0063682361002384F84330A8E72A4649462A
:102BBC0040462369D0470130ABD023689B0713D420
:102BCC00E068039B9842B8BF1846A4E7012332463D
:102BDC0049464046D04701309BD00135E368039904
:102BEC005B1AAB42F2DCEBE7002504F11906F5E7C2
:102BFC0031360008423600082DE9F84315468A683C
:102C0C0080460C4632B98A69002A0CBF01224FF06B
:102C1C00FF328A6000272268DFF88C90D1065FBFF4
:102C2C001A68111D19601668A06988B1012807D1AE
:102C3C002B681A7863699B5C53B9002F31D022E062
:102C4C00022820D12B681B7813F809301B071AD4E3
:102C5C0023680137DA065EBF2B681B7806F8013B48
:102C6C002A686B6801322A60A268013B013A6B60EA
:102C7C00A26042B1002BD7DC29464046D4F8803103
:102C8C0098470028D0D0236813F0100305D1E268D0
:102C9C000132E260A26902B13370002023693B4427
:102CAC002361BDE8F88300BF6F3600082DE9F04FB3
:102CBC000C469846754B87B08246164693E807003B
:102CCC0003AB83E80700724BA169724A27460329BC
:102CDC0018BF1A46A36801925A1EB2F5AE7F81BF87
:102CEC006FF4AE7503EB050940F25D13A36057F862
:102CFC001C3B98BF4FF000093D464FF0000B43F4CE
:102D0C0050632360316803AB0222097853F82B001F
:102D1C0000F02EFA28B3BBF1010F59D162682AB921
:102D2C0008232268636042F400722260226822F455
:102D3C00A0622260A268511EA16092B13268511C3F
:102D4C003160127805F8012B7268013A002A726022
:102D5C0007DC31465046D4F880219047002840F0DB
:102D6C0085800BF1010BBBF1030FCBD163680BB961
:102D7C000A236360636848496069C91A00F08EF8D9
:102D8C004FF0000BA3682268002B3DD031686069BE
:102D9C0091F800C010F80C00002835D0BCF1300FB1
:102DAC0024D1100522D50BF1010BB9F1000F03D082
:102DBC00013309F1FF39A3607368013B002B736089
:102DCC001BDD336801333360A368013BA360D9E793
:102DDC00BBF1020FAED1226802F4C061B1F5007FE5
:102DEC00BFD1102342F480726360A2E722F4106218
:102DFC0022600B7805F8013BDEE731465046D4F8EB
:102E0C00803198470028DFD02368DB050DD5BD4203
:102E1C0009D915F8011C32465046D4F87C3105F11D
:102E2C00FF3998474D46BD422DD0226812F0100252
:102E3C0013D12A70394663685046019EB047216809
:102E4C00D8F8003011F0200F13D01A1DC8F800204C
:102E5C001B681860E3680133E3600020ED1BAB4492
:102E6C0025695D44256107B0BDE8F08F4FF0000B7C
:102E7C00CAE71A1DC8F800201B6811F0010F14BF17
:102E8C0018801860E6E70120EDE700BF6034000809
:102E9C00F9300008113000086C36000870B50B785A
:102EAC0004465E2B13BF002201224B78481C08BF3E
:102EBC00881C04F1FF05611E01F8012FA942FBD10A
:102ECC000BB9013870BD82F001020546E254284668
:102EDC0010F8011B2D2906D05D29F3D009B928461D
:102EEC00F0E70B46F1E76E785D2EFAD0B342F8DCD2
:102EFC001946023501318E426254FBDCF11A01395C
:102F0C00B342A8BF0021581C4318E0E7012B2DE960
:102F1C00F047804601D0242B06D900F021F9162366
:102F2C0003600020BDE8F0870D46354F284615F8A4
:102F3C00014BE65D16F00806F8D12D2C2FD1012699
:102F4C002C78851C002B57D0102B09D1302C07D195
:102F5C00287800F0DF00582849D110236C7802350E
:102F6C00002706F1004E0EF1FF3EBEFBF3F938468A
:102F7C0003FB19EAA4F1300CBCF1090F14D8644618
:102F8C00A34222DD002F1DDB81451BD301D1A245BD
:102F9C0018DB012700FB034015F8014BEAE72B2C4B
:102FAC0004BF2C78851CCDE7A4F1410CBCF1190FA2
:102FBC0001D8373CE4E7A4F1610CBCF1190F04D83B
:102FCC00573CDDE74FF0FF37E6E7002F07DA222307
:102FDC007046C8F80030002AA4D0691E05E006B17E
:102FEC004042002A9ED0002FF7D111609AE730247E
:102FFC00002BB5D10823B3E7302CA9D00A23AFE7B7
:10300C006F360008FFF782BF2DE9F04386460D4668
:10301C00354F284615F8014BE65D16F00806F8D139
:10302C002D2C2FD101262C78851C002B57D0102B42
:10303C0009D1302C07D1287800F0DF00582849D16D
:10304C0010236C7802354FF0FF38B8FBF3F80027EB
:10305C0003FB08F938466FEA0909A4F1300CBCF1FE
:10306C00090F14D86446A34222DD002F1DDB8045D6
:10307C001BD301D1A14518DB012700FB034015F838
:10308C00014BEAE72B2C04BF2C78851CCDE7A4F16F
:10309C00410CBCF1190F01D8373CE4E7A4F1610CE9
:1030AC00BCF1190F04D8573CDDE74FF0FF37E6E7CA
:1030BC00002F07DA22234FF0FF30CEF8003032B960
:1030CC00BDE8F08306B14042002AF9D007B1691E71
:1030DC001160F5E73024002BB5D10823B3E7302C71
:1030EC00A9D00A23AFE700BF6F360008FFF78CBFEB
:1030FC002DE9F0410C46496B04F1440399421BD174
:10310C004FF4806100F0C4F818B94FF0FF30BDE8FF
:10311C00F0814FF48063A36394F84630606380F8C9
:10312C00FF3394F8453000F2FD30437094F844308E
:10313C00037020600020EAE7A66B77003A4600F0A7
:10314C001BF905460028E0D000EB06080146324684
:10315C004046FFF707F8C4E90D57C4F80080E9E7CB
:10316C00014B1868704700BF0C0000207047704777
:10317C00034610B5C9B202449342184601D100204F
:10318C0003E0047801338C42F6D110BD884210B5AF
:10319C0001EB020402D98442234607D8431EA14204
:1031AC0008D011F8012B03F8012FF8E7014602446F
:1031BC008A4200D110BD13F8014D02F8014DF7E71A
:1031CC0038B50546002940D051F8043C0C1F002BA3
:1031DC00B8BFE41800F010F91C4A136833B96360E7
:1031EC0014602846BDE8384000F00CB9A34208D959
:1031FC00206821188B4201BF19685B68091821608F
:10320C00EDE71A465B680BB1A342FAD91168501866
:10321C00A0420BD120680144501883421160E0D1C8
:10322C0018685B68014411605360DAE702D90C231B
:10323C002B60D6E7206821188B4201BF19685B68A8
:10324C000918216063605460CBE738BD4807002043
:10325C0070B50E4E0C463168054611B900F0BCF83D
:10326C0030602146284600F0B7F8431C0AD0C41C35
:10327C0024F00304A04207D0211A284600F0ACF831
:10328C00013001D14FF0FF34204670BD4C070020B7
:10329C002DE9F041CD1C25F0030508350C2D38BF68
:1032AC000C25002D074601DBA94205D90C2300266D
:1032BC003B603046BDE8F0812E4E00F09DF833683F
:1032CC001C4634BB29463846FFF7C2FF431C044654
:1032DC004DD134682646002E40D1236831463846FD
:1032EC0004EB030800F078F880453AD121680335E7
:1032FC006D1A25F0030508350C2D38BF0C25384602
:10330C002946FFF7A5FF01302BD023682B442360FF
:10331C000EE02268521B1ED40B2A16D96119A34247
:10332C00256018BF5960636808BF316062514B60FB
:10333C00384604F10B0600F065F826F00706231D4D
:10334C00F21AB6D09B1BA350B3E76268A3420CBF22
:10335C0032605A60ECE723466468B2E7344676681C
:10336C00B9E70C2338463B6000F04CF8A1E7256028
:10337C00DEE700BF480700202DE9F04180461446E7
:10338C000E4621B91146BDE8F041FFF781BF2AB9BD
:10339C00FFF716FF25462846BDE8F08100F038F807
:1033AC008442074602D8B4EB500F12D8214640464F
:1033BC00FFF76EFF05460028EDD0BC422246314691
:1033CC0028BF3A46FEF7CEFE31464046FFF7F8FEE0
:1033DC00E1E73546DFE7000038B50023054D04462C
:1033EC0008462B6000F01CF8431C02D12B6803B17B
:1033FC00236038BD400700200148FFF7B7BE00BF6F
:10340C00440700200148FFF7B2BE00BF440700206C
:10341C0051F8043C181F002BBCBF0B58C018704748
:10342C00044A05491368002B08BF0B46184410606A
:10343C00184670475007002058070020F8B500BF09
:10344C00F8BC08BC9E467047F8B500BFF8BC08BC79
:04345C009E467047D1
:1034600053360008563600085936000825736B3D60
:10347000257326763D257326733D257300000000D5
:1034800037346230326336352D326135362D34367D
:1034900039382D613037332D3331323632363833C7
:1034A00033326137000000003338323030310000F1
:1034B000687474703A2F2F6F746164726976652E28
:1034C000636F6D2F6465766963656170692F7570D0
:1034D000646174653F000000312E302E302E3200C2
:1034E00053696D206572726F720D0A0041542B434F
:1034F0004D47533D222573220D0A000041542B43B2
:103500004D47463D310D0A003E00000041542B4816
:10351000545450494E49540D0A00000041542B4860
:10352000545450504152413D2255524C222C222598
:1035300073220D0A00000000436F6E6E65637469AC
:103540006E67205365727665720D0A0041542B48F0
:10355000545450414354494F4E3D300D0A00000031
:103560002B48545450414354494F4E3A2025642C23
:103570002025642C2025640041542B48545450527B
:103580004541440D0A00000053657276657220457E
:1035900072726F72000000002B4350494E3A205265
:1035A000454144590D0A0D0A4F4B0D0A0000000019
:1035B00041542B4350494E3F0D0A000041542B53B8
:1035C000415042523D312C310D0A00005365747553
:1035D000702047534D2C204750525320646F6E6526
:1035E0000D0A0000415445300D0A000041540D0AF7
:1035F0000000000002030405060708090A0B0C0D71
:103600000E0F10100000000000000000000000007D
:103610000102030406070809000000000102030478
:10362000232D302B2000686C4C00656667454647AB
:10363000003031323334353637383941424344452E
:10364000460030313233343536373839616263649D
:103650006566002B2D00303000785800412D466102
:103660002D66383930313233343536375D0000203D
:103670002020202020202020282828282820202022
:1036800020202020202020202020202020202088D2
:103690001010101010101010101010101010100436
:1036A0000404040404040404041010101010101086
:1036B000414141414141010101010101010101017A
:1036C0000101010101010101010110101010101090
:1036D000424242424242020202020202020202024A
:1036E0000202020202020202020210101010200066
:1036F00000000000000000000000000000000000CA
:1037000000000000000000000000000000000000B9
:1037100000000000000000000000000000000000A9
:103720000000000000000000000000000000000099
:103730000000000000000000000000000000000089
:103740000000000000000000000000000000000079
:103750000000000000000000000000000000000069
:103760000000000000000000000000000000000059
:103770000000000000000000000000000000000049
:103780000000000000000000000000000000000039
:103790000000000000000000000000000000000029
:1037A0000000000000000000000000000000000019
:1037B0000000000000000000000000000000000009
:1037C00000000000000000000000000000000000F9
:0437D00031010008BB
:0437D4000D010008DB
:1037D80001010000100000000024F4001000002087
:1037E8000000000090370008B03700087037000864
:1037F80000000000000000000000000000000000C1
:1038080000000000000000000000000000000000B0
:1038180000000000000000000000000000000000A0
:103828000000000000000000000000000000000090
:103838000000000000000000000000000000000080
:04000005080020DDF2
:00000001FF
